:1000000031C1000076C5000049C500001CC50000D4
:10001000EFC40000C2C4000095C4000068C4000022
:100020003BC4000050C100004EC100004CC10000A4
:100030004AC1000048C1000046C1000044C10000A0
:1000400042C1000040C100003EC100003CC10000B0
:100050003AC1000038C1000036C100000C94EC0D1C
:1000600032C10000B0C5000085C500002CC10000F1
:100070002AC1000028C1000026C1000024C10000E0
:1000800022C1000020C100001EC100001CC10000F0
:100090001AC1000018C1000016C1000014C1000000
:1000A00012C1000010C100000EC100000CC1000010
:1000B0000AC1000008C1000006C1000004C1000020
:1000C00002C1000000C10000FEC00000FCC0000032
:1000D000FAC00000F8C00000F6C00000F4C0000044
:1000E000F2C000004303480350035B035D03620357
:1000F0006A037503830385033F0942093109350902
:100100003B09790946094A095009540958095E0909
:100110006209660979096C0970097409840C890CF3
:100120008E0C980CA20C1B0DAC0CB40CBC0CC60CA9
:10013000D00CDA0CE90CF30C1B0DFD0C070D110DA6
:1001400000002100240027002A002D003000330089
:1001500001010000040107010A010000220025003E
:1001600028002B002E0031003400020100000501A0
:1001700008010B01000020002300260029002C00AC
:100180002F003200000100000301060109010505EE
:100190000505070508080808020202020A0A0808FD
:1001A000040404040101010101010101030303032B
:1001B00003030303040707070C0C0C0C0C0C0C0CBA
:1001C0000202020206060606060606060B0B0B0BCB
:1001D0000B0B0B0B010210202008081020401020F0
:1001E00040800201020108040201010204081020FB
:1001F00040808040201008040201800402018040F9
:100200002010080402010804020101020408102061
:100210004080010204081020408000000A0B0209FF
:100220000C0D0E0807030401000000000000000090
:1002300000000000000000000000000000000000BE
:10024000000000000000121110000000000000007B
:10025000000000000000000000000000000000009E
:10026000161AF61911241FBECFEFD1E2DEBFCDBFA3
:1002700000E00CBF25E0A6E8B3E001C01D92AD345C
:10028000B207E1F713E0A0E0B2E0ECE3FFE300E047
:100290000BBF02C007900D92A638B107D9F711E045
:1002A000C1E3D1E000E006C021970109802FFE01E3
:1002B0000E942B1DC033D10780E00807A9F70E94D8
:1002C000360E0C948D1F9CCE08950895CF92DF9228
:1002D000EF92FF920F931F93CF93DF936C017A01FC
:1002E0008B01C0E0D0E0CE15DF0581F0D8016D9123
:1002F0008D01D601ED91FC910190F081E02DC601B8
:100300001995892B11F02196EECF7E01C701DF915F
:10031000CF911F910F91FF90EF90DF90CF900895B4
:10032000FC01538D448D252F30E0842F90E0821BFB
:10033000930B541710F0CF96089501970895FC0180
:10034000918D828D981761F0828DDF01A80FB11D0C
:100350005D968C91928D9F5F9F73928F90E0089530
:100360008FEF9FEF0895FC01918D828D981731F0EA
:10037000828DE80FF11D858D90E008958FEF9FEF3E
:100380000895FC01918D228D892F90E0805C9F4F14
:10039000821B91098F739927089585ED93E0F1DF12
:1003A00021E0892B09F420E0822F0895FC01848D3F
:1003B000DF01A80FB11DA35ABF4F2C91848D90E08F
:1003C00001968F739927848FA689B7892C93A0896A
:1003D000B1898C91837080648C93938D848D9813F4
:1003E00006C00288F389E02D80818F7D8083089587
:1003F000EF92FF920F931F93CF93DF93EC0181E075
:10040000888F9B8D8C8D981305C0E889F989808130
:1004100085FD25C0F62E0B8D10E00F5F1F4F0F736B
:100420001127E02E8C8DE8120BC00FB607FCFACF17
:10043000E889F989808185FFF5CFCE01B7DFF2CF5A
:100440008B8DFE01E80FF11DE35AFF4FF0829FB73D
:10045000F8940B8FEA89FB89808180620AC09FB77C
:10046000F894EE89FF896083E889F9898081837037
:10047000806480839FBF81E090E0DF91CF911F91E6
:100480000F91FF90EF900895CF93DF93EC01888D4B
:100490008823C1F0EA89FB89808185FD05C0A88990
:1004A000B9898C9186FD0EC00FB607FCF5CF80810F
:1004B00085FFF2CFA889B9898C9185FFEDCFCE0158
:1004C00075DFE8CFDF91CF91089580E090E0892B30
:1004D00019F063DF811125C080E090E0892B41F0A5
:1004E00080E090E0892B21F00E94000081111CC067
:1004F00080E090E0892B41F080E090E0892B21F0B2
:100500000E940000811113C080E090E0892BA1F0CF
:1005100080E090E0892B81F00E94000081110AC0E8
:1005200008950E940000D8CF0E940000E1CF0E94F1
:100530000000EACF0C940000089580E090E0089558
:100540008091C3039091C40301969093C403809358
:10055000C30308950E94481F862F642F0C94620BDA
:10056000FC0181850E940C0B21E0892B09F420E01D
:10057000822F0895CF93DF93EC0160E08E810E947B
:10058000340B61E08E810E94340B60E08E810E940A
:10059000340B8BE891E00197F1F7DF91CF9108954B
:1005A0000F931F93CF93DF93EC018B01888599857F
:1005B0000297F1F46130710569F024F4672BC1F4FE
:1005C00060E009C06230710559F06330710581F453
:1005D00060E007C061E08C850E94340B61E005C0DB
:1005E00061E08C850E94340B60E08E850E94340BA4
:1005F000888599850497B9F501301105B1F04CF45F
:100600000115110581F561E08C850E94340B60E0D5
:1006100011C002301105B9F00330110521F561E078
:100620008C850E94340B60E013C060E08C850E94D2
:10063000340B61E08E850E94340B61E088890E9452
:10064000340B60E00DC060E08C850E94340B61E0EB
:100650008E850E94340B60E088890E94340B61E033
:100660008A890E94340B88859985059709F060C0B6
:100670000A30110508F05CC0F8018827EE58FF4FDA
:100680008F4F0C942B1D60E08C85EED761E041C04C
:1006900060E08C85E9D761E08E85E6D760E03CC0FC
:1006A00060E08C85E1D761E08E85DED760E08889E7
:1006B000DBD761E034C060E001C061E08C85D4D755
:1006C00061E004C061E08C85CFD760E08E85CCD737
:1006D00060E007C061E08C85C7D760E08E85C4D735
:1006E00061E08889C1D761E00AC061E08C85BCD730
:1006F00060E08E85B9D761E08889B6D760E08A89E5
:10070000B3D760E00FC061E001C060E08C85ACD77A
:1007100060E08E85A9D761E08889A6D760E08A89E4
:10072000A3D761E08C89DF91CF911F910F919CC776
:10073000DF91CF911F910F910895FC0180819181EC
:10074000009711F00C94ED1A60E070E0CB01089571
:100750000F931F93CF93DF938C01EB01FC018081FA
:100760009181009739F06881798161157105A1F453
:100770000E94DF1D88819981F801918380838A819D
:100780009B81938382838C819D819583848319824D
:1007900018821B821A820FC0F801428153812C817A
:1007A0003D814217530720F30E945E1F8C819D817B
:1007B000F801958384831D821C82DF91CF911F9164
:1007C0000F9108950F931F93CF93DF93EC018881CE
:1007D0009981009729F02A813B812617370788F4F1
:1007E0008B016F5F7F4F0E94681E009761F09983B5
:1007F00088831B830A832C813D81232B11F4FC0108
:10080000108281E001C080E0DF91CF911F910F91B4
:100810000895EF92FF920F931F93CF93DF93EC0114
:100820007B018A01BA01CEDF2881398181110DC097
:100830002115310519F0C9010E94DF1D19821882A6
:100840001D821C821B821A8206C01D830C83B70185
:10085000C9010E945E1FCE01DF91CF911F910F91C0
:10086000FF90EF900895FC01808191810C94DF1D31
:10087000FC0111821082138212821582148261158A
:10088000710549F0FB0101900020E9F73197AF01B4
:10089000461B570BBECF08951F920F920FB60F92B3
:1008A00011240BB60F922F933F934F935F936F9347
:1008B0007F938F939F93AF93BF93EF93FF93E091B9
:1008C0000E02F0910F021995FF91EF91BF91AF9138
:1008D0009F918F917F916F915F914F913F912F9158
:1008E0000F900BBE0F900FBE0F901F9018951F9288
:1008F0000F920FB60F9211240BB60F922F933F93C6
:100900004F935F936F937F938F939F93AF93BF9317
:10091000EF93FF93E0910C02F0910D021995FF9176
:10092000EF91BF91AF919F918F917F916F915F9167
:100930004F913F912F910F900BBE0F900FBE0F90D4
:100940001F9018951F920F920FB60F9211240BB69D
:100950000F922F933F934F935F936F937F938F9358
:100960009F93AF93BF93EF93FF93E0910202F091B7
:1009700003021995FF91EF91BF91AF919F918F91D4
:100980007F916F915F914F913F912F910F900BBE8F
:100990000F900FBE0F901F9018951F920F920FB6D9
:1009A0000F9211240BB60F922F933F934F935F93A7
:1009B0006F937F938F939F93AF93BF93EF93FF9327
:1009C000E0910002F09101021995FF91EF91BF9122
:1009D000AF919F918F917F916F915F914F913F91D7
:1009E0002F910F900BBE0F900FBE0F901F90189578
:1009F0001F920F920FB60F9211240BB60F922F93E6
:100A00003F934F935F936F937F938F939F93AF9396
:100A1000BF93EF93FF93E0910A02F0910B021995B7
:100A2000FF91EF91BF91AF919F918F917F916F91C6
:100A30005F914F913F912F910F900BBE0F900FBE82
:100A40000F901F9018951F920F920FB60F921124BE
:100A50000BB60F922F933F934F935F936F937F93B8
:100A60008F939F93AF93BF93EF93FF93E09108020F
:100A7000F09109021995FF91EF91BF91AF919F916C
:100A80008F917F916F915F914F913F912F910F9037
:100A90000BBE0F900FBE0F901F9018951F920F92D4
:100AA0000FB60F9211240BB60F922F933F934F93D3
:100AB0005F936F937F938F939F93AF93BF93EF93C6
:100AC000FF93E0910602F09107021995FF91EF91D3
:100AD000BF91AF919F918F917F916F915F914F9156
:100AE0003F912F910F900BBE0F900FBE0F901F9054
:100AF00018951F920F920FB60F9211240BB60F92FA
:100B00002F933F934F935F936F937F938F939F9315
:100B1000AF93BF93EF93FF93E0910402F09105022E
:100B20001995FF91EF91BF91AF919F918F917F9117
:100B30006F915F914F913F912F910F900BBE0F904E
:100B40000FBE0F901F9018956115710579F0FB018C
:100B500001900020E9F73197AF01461B570BDC01EC
:100B6000ED91FC910280F381E02D199480E090E0FA
:100B70000895EACF1F920F920FB60F9211240BB671
:100B80000F922F933F934F935F936F937F938F9326
:100B90009F93AF93BF93EF93FF9385ED93E006DCB4
:100BA000FF91EF91BF91AF919F918F917F916F9145
:100BB0005F914F913F912F910F900BBE0F900FBE01
:100BC0000F901F9018951F920F920FB60F9211243D
:100BD0000BB60F922F938F939F93EF93FF93E09118
:100BE000E503F091E6038081E091EB03F091EC03E3
:100BF00082FD12C090818091EE038F5F8F732091F0
:100C0000EF03821751F0E091EE03F0E0EB52FC4F5E
:100C1000958F8093EE0301C08081FF91EF919F91AA
:100C20008F912F910F900BBE0F900FBE0F901F90C2
:100C30001895CF92DF92EF92FF920F931F93CF936D
:100C4000DF936C017C0187E0E80EF11CC0E0D0E08E
:100C5000062F10E0B8010C2E02C0759567950A9416
:100C6000E2F76170F70181917F01FED42196C430D3
:100C7000D10581F7C601DF91CF911F910F91FF90B0
:100C8000EF90DF90CF9076CCCF92DF92EF92FF92F1
:100C90000F931F93CF93DF93EC01F62E642F8C817B
:100CA000E3D48D818F3F11F060E0DED48F850F2D6E
:100CB00010E084FF23C06E0187E0C80ED11CE12C38
:100CC000F12CB8010E2C02C0759567950A94E2F7D5
:100CD0006170F60181916F01C7D4FFEFEF1AFF0A2F
:100CE00088E0E816F10469F7CE01DF91CF911F91FA
:100CF0000F91FF90EF90DF90CF903CCCB80184E053
:100D0000759567958A95E1F7CE0193DF6F2DCE013A
:100D1000DF91CF911F910F91FF90EF90DF90CF90D7
:100D200088CF41E0B1DF81E090E008954F925F927B
:100D30006F927F928F929F92AF92BF92CF92DF92EB
:100D4000EF92FF920F931F93CF93DF93EC018B01F0
:100D500077FF04C000271127061B170B161617066E
:100D60002CF481E090E09983888304C0672B11F014
:100D70001982188284E0E82EF12C9AE0C92ED12C39
:100D80000115110509F447C0F6D68E889F88A88CF6
:100D9000B98C2B013C01481859086A087B088A80E5
:100DA0009B80AC80BD80481459046A047B0440F3E6
:100DB0006E8B7F8B888F998F288139818A859B855F
:100DC0002130310559F401969B878A872E813F8116
:100DD0008217930771F41B861A860BC0892B21F4A6
:100DE0008E819F819B878A878A859B8501979B87B8
:100DF0008A8701501109288539858A859B85253088
:100E0000310511F4B60101C0B7010E94DA1CBC0122
:100E1000CE01C6DBB5CFDF91CF911F910F91FF902F
:100E2000EF90DF90CF90BF90AF909F908F907F908A
:100E30006F905F904F900895CF93DF93D82FC62F78
:100E40006FD260E080E05BD26BEA72E082E794E010
:100E500090DE61E080E053D261EA72E082E794E0E4
:100E600088DE61E08AE04BD28D2F61D261E08BE0B9
:100E700046D28C2FDF91CF915AC261E08AE03FD2F7
:100E8000C3C361E080E03BD2BFC360E08AE037D2F9
:100E9000BBC34F925F926F927F928F929F92AF925D
:100EA000BF92CF92DF92EF92FF920F931F93CF9357
:100EB000DF93CDB7DEB728970FB6F894DEBF0FBE2D
:100EC000CDBF2B013C0129833A834B835C83ED82A8
:100ED000FE820F8318874501560160E080E00FD243
:100EE00064E972E082E794E044DE60E086E007D2E5
:100EF000A3019201C301B2010E94D61C882319F0FC
:100F000069E773E01AC073016201E894F7F82FEF04
:100F10003FEF4FE75FE7C701B6010E94D61C811182
:100F200010C02FEF3FEF4FE75FE7C701B6010E9408
:100F3000281B181634F46DE773E082E794E004DEB2
:100F40006DC02FEF3FEF4FE75FE4C301B2010E9496
:100F5000D21C18161CF461E873E0EFCF2FEF3FEFBF
:100F60004FE75FECC301B2010E94281B87FDF3CF5E
:100F700020E030E0A901C301B2010E94281B87FFD5
:100F800006C08DE2D4D177FA709477F870942AE095
:100F900037ED43EA5BE3C301B2010E94421C2B011F
:100FA0003C010E94A61C6B017C010E942C1B9B0132
:100FB000AC01C301B2010E94411C2B013C014AE07B
:100FC000C701B6015DD28EE2B2D120E030E040E24E
:100FD00051E4C301B2010E948D1B6B017C010E9490
:100FE000A61C2B01612C712C4AE0C301B20148D22E
:100FF000C301B2010E942C1B9B01AC01C701B601C9
:101000000E94411C20E030E040E251E40E948D1B30
:101010000E94A61C80E090E04AE032D260E08FE0BF
:101020006ED169817A818B819C816CD261E080E094
:1010300066D167E872E082E794E09BDD61E086E0DC
:101040005ED16D817E818F8198855CD261E08FE079
:1010500056D1C501B40128960FB6F894DEBF0FBE75
:10106000CDBFDF91CF911F910F91FF90EF90DF9057
:10107000CF90BF90AF909F908F907F906F905F9038
:101080004F9040C24DD160E080E039D16AE772E014
:1010900082E794E06EDD61E080E031D169E672E0E4
:1010A00082E794E066CD8F929F92AF92BF92CF92EB
:1010B000DF92EF92FF92CF93DF93C6E2D5E02E81CD
:1010C0003F81032E000C440B550B812C87E8982E92
:1010D00083E9A82E83E0B82EC501B4010E940F1D3C
:1010E000C12CD12C7601CA01B901A70196010E9439
:1010F0000F1D2A833B834C835D83CCE0D5E02E819A
:101100003F81032E000C440B550BC501B4010E9416
:101110000F1DCA01B901A70196010E940F1D2A8364
:101120003B834C835D83C2EFD4E02E813F81032E4D
:10113000000C440B550BC501B4010E940F1DCA01E0
:10114000B901A70196010E940F1D2A833B834C839E
:101150005D8360E070E082E0B0D360E070E08CE03E
:10116000ACD390DF81E090E090931402809313025F
:10117000DF91CF91FF90EF90DF90CF90BF90AF9035
:101180009F908F9008958AEB94E0E3C188EC94E0FF
:10119000E0C184EE94E0E7D186ED94E0E4D188EC00
:1011A00094E0E1D18AEB94E0DEC10F931F93CF93DB
:1011B00007D50091BF031091C0032091C103309166
:1011C000C2030C501E4F2F4F3F4F6017710782070D
:1011D0009307B0F183E020D2892B51F4C091BE0374
:1011E0006C2F8DE041D261E06C276093BE0303C099
:1011F00061E08DE039D26091C3037091C403072E82
:10120000000C880B990B0E942E1B20E030E040EC74
:1012100050E40E948D1B6093860370938703809334
:101220008803909389031092C4031092C303C8D417
:101230006093BF037093C0038093C1039093C20374
:10124000CF911F910F91089590E0FC013197E23109
:10125000F10508F04EC08827E458FF4F8F4F0C94DB
:101260002B1D809180008F7703C0809180008F7D3F
:1012700080938000089580918000877FF9CF84B5A6
:101280008F7702C084B58F7D84BD08958091B000B2
:101290008F7703C08091B0008F7D8093B000089558
:1012A000809190008F7707C0809190008F7D03C060
:1012B00080919000877F8093900008958091A00096
:1012C0008F7707C08091A0008F7D03C08091A00020
:1012D000877F8093A0000895809120018F7707C0B9
:1012E000809120018F7D03C080912001877F8093B2
:1012F0002001089540E0682F82E794E0C5CC643077
:1013000008F063E090918504691710F06FEF690FA2
:10131000E62FF0E0EE58FB4F9489890F8068EACF02
:1013200081E0E8DF8BE39FE10197F1F7089541E069
:10133000682F82E794E0A8DC81E090E00895CF93E5
:10134000DF93EC01698718860BD9882319F088850B
:101350008360888735D46A837B838C839D83DF9108
:10136000CF910895CF93DF93FC0144815581608133
:10137000718185ED93E00E946601EC016EE573E0FA
:1013800085ED93E0E1DB8C0F9D1FDF91CF910895F8
:10139000BC018091D3039091D403E5ECF3E027E006
:1013A00030E02150310932972115310551F0468541
:1013B000578564177507ACF74817590794F7CA01A2
:1013C000F0CF0895CF93DF932091B8043091B90402
:1013D000232B79F0FC01C091B404D091B504608155
:1013E0007181CE010E94731F009719F08C1B9D0B19
:1013F00002C08FEF9FEFDF91CF9108952091B80445
:101400003091B904DC011496ED91FC9115972E17DB
:101410003F07B0F04091B4045091B5044115510517
:1014200079F06D917C916115710551F0C9018E1BA8
:101430009F0B840F951F0E94551F21E0892B09F0F7
:1014400020E0822F0895FC01448155818091B804E9
:101450009091B9048417950780F08091B40490911D
:10146000B504009751F0608171816115710529F013
:101470000E94651F21E0892B09F020E0822F08954A
:101480008F929F92AF92BF920F931F93CF93DF9350
:10149000CDB7DEB7A1970FB6F894DEBF0FBECDBFB4
:1014A00019A2423008F44AE08E010F5D1F4F842ECE
:1014B000912CA12CB12CA50194010E94ED1CE62FCA
:1014C000B901CA0101501109EA3014F4E05D01C00C
:1014D000E95CD801EC93232B242B252B61F7B80171
:1014E00082E794E031DBA1960FB6F894DEBF0FBE21
:1014F000CDBFDF91CF911F910F91BF90AF909F9083
:101500008F900895CF92DF92EF92FF92CF93DF9367
:1015100097FF17C06B017C018DE209DFEC016627A4
:101520007727CB016C197D098E099F094AE0A8DF56
:101530008C0F9D1FDF91CF91FF90EF90DF90CF90A8
:1015400008954AE0DF91CF91FF90EF90DF90CF9028
:1015500097CFFC01808580FD04C082FB882780F93D
:10156000089580E00895CF92DF92EF92FF921F934B
:10157000CF93DF93EC0188858B7F8887CE010E9413
:10158000B002182F888586958170181751F018D3EE
:101590006A837B838C839D83988582E089278887F3
:1015A00027C00ED3CA80DB80EC80FD80AB01BC017C
:1015B0004C195D096E097F098E819F81A0E0B0E022
:1015C000481759076A077B0798F0888581701817B4
:1015D00079F0F6D26A837B838C839D83988581E042
:1015E000892784608887ECD26A877B878C879D8770
:1015F000888582FB882780F9DF91CF911F91FF902A
:10160000EF90DF90CF900895E2E7F4E08089982F83
:101610009260908B8A606ECECF93DF93282F30E05C
:10162000F901E65EFD4F8491F901EC52FE4FD49131
:10163000F901E257FE4FC491CC2389F0811104DEF9
:10164000EC2FF0E0EE0FFF1FEC58FE4FA591B49188
:10165000EC91ED2381E090E021F480E002C080E095
:1016600090E0DF91CF9108951F93CF93DF93282FC0
:1016700030E0F901E65EFD4F8491F901EC52FE4F36
:10168000D491F901E257FE4FC491CC23B9F0162F43
:101690008111DADDEC2FF0E0EE0FFF1FE65AFE4F6E
:1016A000A591B4919FB7F894111104C08C91D09575
:1016B000D82302C0EC91DE2BDC939FBFDF91CF914A
:1016C0001F910895CF93DF9390E0FC01EC52FE4F01
:1016D0002491FC01E257FE4F8491882361F190E050
:1016E000880F991FFC01E05CFE4FC591D491FC016D
:1016F000E65AFE4FA591B491611109C09FB7F894C5
:101700008881209582238883EC912E230BC0623040
:1017100061F49FB7F8948881322F309583238883B2
:10172000EC912E2B2C939FBF06C08FB7F894E881C5
:101730002E2B28838FBFDF91CF9108950F931F9396
:10174000CF93DF93EC01862F1B861A8619821882AD
:101750001E8A1F8A188E198EEAE0F0E0FF83EE835E
:101760006C877D875F874E87398B288B1B8B0A8B15
:1017700061E0A8DF61E08E85A5DF61E08889A2DFF6
:1017800061E08A899FDF1D8A1C8A84E090E0998746
:101790008887DF91CF911F910F910895CF93DF93A9
:1017A000823028F090918104986090938104809316
:1017B00085041092860480E48093870480E18093FE
:1017C000880480E58093890461E0809176047ADF63
:1017D000809177048F3F11F061E074DF61E08091C8
:1017E000780470DFC2E7D4E09E0122573440809134
:1017F000810484FD03C084E090E002C088E090E0B2
:1018000021962817390724F461E08E815BDFECCF45
:101810008BE39DE00197F1F760E08091760424DF8F
:1018200060E08091780420DF809177048F3F11F091
:1018300060E01ADF8091810484FD1CC063E082E7D0
:1018400094E0F7D9CBE4D6E4CE010197F1F763E059
:1018500082E794E0EED92197F1F763E082E794E024
:10186000E8D983E592E00197F1F762E082E794E03E
:10187000E0D912C080623EDD8BE496E40197F1F777
:1018800080918104806236DD83E592E00197F1F773
:101890008091810480622EDD8091810480622ADD46
:1018A00084E0809382048CE025DD3ADD82E0809341
:1018B000830486E0DF91CF911DCD1F93CF93DF93FB
:1018C000182FEB0161E0FEDE209711F460E004C008
:1018D000CF3FD10531F461E0812FDF91CF911F918E
:1018E000C3CEE12FF0E0E65EFD4FE4918E2F90E055
:1018F000FC013197E231F10508F09DC08827E257DD
:10190000FF4F8F4F0C942B1D84B5806884BDC7BDDD
:1019100097C084B5806284BDC8BD92C080918000AC
:10192000806880938000D0938900C093880088C02D
:1019300080918000806280938000D0938B00C09360
:101940008A007EC080918000886080938000D09360
:101950008D00C0938C0074C08091B000806880932B
:10196000B000C093B3006CC08091B00080628093DF
:10197000B000C093B40064C08091900080688093F0
:101980009000D0939900C09398005AC08091900025
:10199000806280939000D0939B00C0939A0050C0C7
:1019A00080919000886080939000D0939D00C093B8
:1019B0009C0046C08091A00080688093A000809128
:1019C000A0008F7B8093A000D093A900C093A800B3
:1019D00037C08091A00080628093A000D093AB00BC
:1019E000C093AA002DC08091A00088608093A000C1
:1019F000D093AD00C093AC0023C0809120018068DB
:101A000080932001D0932901C093280119C08091AF
:101A10002001806280932001D0932B01C0932A0182
:101A20000FC080912001886080932001D0932D0108
:101A3000C0932C0105C0C038D1050CF04CCF46CF67
:101A4000DF91CF911F9108958F929F92AF92BF9295
:101A5000CF92DF92EF92FF926B017C018CD04B0111
:101A60005C01C114D104E104F104E9F084D0DC018B
:101A7000CB0188199909AA09BB09883E9340A105A1
:101A8000B10578F321E0C21AD108E108F10888EE27
:101A9000880E83E0981EA11CB11CC114D104E1047E
:101AA000F10421F7DECFFF90EF90DF90CF90BF9051
:101AB000AF909F908F900895CF92DF92EF92FF9218
:101AC0000F931F93CF93DF936C01EB017A014617BD
:101AD000570720F48D2FEA01E62EF82E60E673E01A
:101AE000C6010E9438040091B8041091B904C017CF
:101AF000D107B8F5E016F10608F48701E091B404C7
:101B0000F091B504E00FF11FF08010826091B404F1
:101B10007091B5046C0F7D1F6115710561F0FB01BB
:101B200001900020E9F73197AF01461B570BC60122
:101B30000E9409040EC0F60180819181009711F086
:101B40000E94DF1DF6011182108215821482138219
:101B500012828091B4049091B504FC01E00FF11F52
:101B6000F082C601DF91CF911F910F91FF90EF900E
:101B7000DF90CF9008953FB7F894809145059091FC
:101B80004605A0914705B091480526B5A89B05C01C
:101B90002F3F19F00196A11DB11D3FBFBA2FA92FEC
:101BA000982F8827820F911DA11DB11DBC01CD0169
:101BB00042E0660F771F881F991F4A95D1F7089555
:101BC0002FB7F894609141057091420580914305CB
:101BD000909144052FBF08951F920F920FB60F9258
:101BE00011242F933F938F939F93AF93BF93809133
:101BF000410590914205A0914305B0914405309173
:101C0000400523E0230F2D3720F40196A11DB11DBF
:101C100005C026E8230F0296A11DB11D20934005A3
:101C20008093410590934205A0934305B0934405EA
:101C30008091450590914605A0914705B0914805D2
:101C40000196A11DB11D8093450590934605A09373
:101C50004705B0934805BF91AF919F918F913F91F8
:101C60002F910F900FBE0F901F901895CF93DF9379
:101C7000CDB7DEB7EA970FB6F894DEBF0FBECDBF83
:101C8000789484B5826084BD84B5816084BD85B557
:101C9000826085BD85B5816085BD80916E00816063
:101CA00080936E0010928100809181008260809309
:101CB000810080918100816080938100809180000B
:101CC0008160809380008091B10084608093B10036
:101CD0008091B00081608093B0008091910082601B
:101CE0008093910080919100816080939100809118
:101CF00090008160809390008091A1008260809329
:101D0000A1008091A10081608093A1008091A0003A
:101D100081608093A00080912101826080932101E5
:101D20008091210181608093210180912001816057
:101D30008093200180917A00846080937A00809162
:101D40007A00826080937A0080917A00816080932B
:101D50007A0080917A00806880937A001092C100A6
:101D600060E085E1AFDC60E088E1ACDC60E08AE166
:101D7000A9DC60E08CE1A6DC60E082E1A3DC61E04C
:101D80008DE0A0DC61E083E09DDC61E087E39ADC2C
:101D900061E088E397DC61E089E394DC61E08AE359
:101DA00091DC61E08BE38EDC61E08CE38BDC61E055
:101DB0008DE388DC61E08EE385DC61E084E082DC39
:101DC00061E085E07FDC61E086E07CDC61E087E06B
:101DD00079DC61E082E076DC61E08CE073DC61E07C
:101DE0008DE070DC61E083E06DDC62E088E06ADC5D
:101DF00060E089E067DC60E08AE064DC60E08BE062
:101E000061DC6BE070E084EE94E099DA09E110E0C7
:101E10001093EB040093EA0468E070E086ED94E030
:101E20008EDA1093DD040093DC0469E070E088EC46
:101E300094E085DA1093CF040093CE046AE070E05A
:101E40008AEB94E07CDA1093C1040093C00482E032
:101E5000A5DC66DAAAD9809113029091140282302F
:101E6000910531F11CF4019749F0B9C28330910515
:101E700009F4EFC0049709F46BC2B1C260E080E0DE
:101E80003EDA6CE272E082E794E00E94B90561E01C
:101E900080E035DA6EE172E082E794E00E94B905F5
:101EA00078D984EE94E055DB882309F498C283C284
:101EB00037DA60E080E023DA69E472E082E794E0F8
:101EC0000E94B90561E080E01ADA6AE372E082E715
:101ED00094E00E94B90585E19FDB892B41F4D2D8BB
:101EE00081E090E0909314028093130278C2809175
:101EF000BD0381118EC083E598E090930502809325
:101F00000402809169008C7F826080936900E89A66
:101F100020912C0530912D05032E000C440B550B00
:101F2000812C67E8962E63E9A62E63E0B62EC501E4
:101F3000B4010E940F1D72E3C72ED12CE12CF12CAD
:101F4000CA01B901A70196010E940F1D209328051F
:101F50003093290540932A0550932B0520911205B3
:101F600030911305032E000C440B550BC501B40131
:101F70000E940F1DCA01B901A70196010E940F1D01
:101F800020930E0530930F054093100550931105D3
:101F90002091F8043091F904032E000C440B550BEA
:101FA000C501B4010E940F1DCA01B901A701960124
:101FB0000E940F1D2093F4043093F5044093F6041F
:101FC0005093F70480E028DB892B41F0EED86AE0DB
:101FD00070E086E295E00E949606F4CF8AE11CDB71
:101FE000892B41F4E2D86AE070E08CE095E00E9431
:101FF0009606F4CF8CE110DB892B41F4D6D86AE049
:1020000070E082EF94E00E949606F4CF81E0809326
:10201000BD0383E090E0909314028093130280D973
:10202000A090B903B090BA03C090BB03D090BC039A
:10203000E090B503F090B6030091B7031091B80398
:102040002091B1033091B2034091B3035091B40396
:102050004BC29FD886ED94E07CDA882349F0CCC14E
:10206000019709F0E1C10E9445078AE580931202B9
:1020700080911202893509F478C08A3521F08835BB
:1020800009F05DC1E6C085D881D88823B1F14091BF
:10209000B1035091B2036091B3037091B403DB01BB
:1020A000CA010196A11DB11D8093B1039093B203A3
:1020B000A093B303B093B40386399105A105B1058C
:1020C00039F46AE070E082EF94E00E9496060DC059
:1020D00087399105A105B1056CF04093B103509388
:1020E000B2036093B3037093B4036BE28AE50E947A
:1020F0001C0738C06AE070E031C045D8882391F1F0
:102100004091B1035091B2036091B3037091B40355
:10211000DB01CA010197A109B1098093B103909332
:10212000B203A093B303B093B4030097A105B10524
:1021300039F466EF7FEF82EF94E00E9496060AC0C2
:10214000B7FF0AC04093B1035093B2036093B30347
:102150007093B4036DE2CACF66EF7FEF82EF94E035
:102160000E9496060E944507EAC013D80FD888231C
:10217000B9F14091B9035091BA036091BB037091DA
:10218000BC03DB01CA010196A11DB11D8093B903F7
:102190009093BA03A093BB03B093BC038C3221E0AD
:1021A0009207A105B10539F46AE070E08CE095E092
:1021B0000E9496060DC08D329140A105B1056CF0CC
:1021C0004093B9035093BA036093BB037093BC036D
:1021D0006BE289E50E941C0739C06AE070E032C0FA
:1021E0000E94C308882391F14091B9035091BA032A
:1021F0006091BB037091BC03DB01CA010197A10987
:10220000B1098093B9039093BA03A093BB03B09331
:10221000BC030097A105B10539F466EF7FEF8CE0B0
:1022200095E00E9496060AC0B7FF0AC04093B90322
:102230005093BA036093BB037093BC036DE2C9CFA4
:1022400066EF7FEF8CE095E00E9496060E943D07C6
:1022500076C00E94C9080E94C6088823C1F1409137
:10226000B5035091B6036091B7037091B803DB01D9
:10227000CA010196A11DB11D8093B5039093B603C9
:10228000A093B703B093B803883C9105A105B105AD
:1022900039F46AE070E086E295E00E9496060DC08F
:1022A000893C9105A105B1056CF04093B5035093AD
:1022B000B6036093B7037093B8036BE288E50E949E
:1022C0001C073BC06AE070E086E295E034C00E94E3
:1022D000C308882391F14091B5035091B6036091F2
:1022E000B7037091B803DB01CA010197A109B109D5
:1022F0008093B5039093B603A093B703B093B8034C
:102300000097A105B10539F466EF7FEF86E295E00D
:102310000E9496060AC0B7FF0AC04093B5035093C7
:10232000B6036093B7037093B8036DE2C7CF66EF4F
:102330007FEF82EF94E00E9496060E9441070E9480
:10234000C90884EE94E005D9882309F448C09EC0EA
:102350000E94C90886ED94E0FCD8A090B903B09023
:10236000BA03C090BB03D090BC03E090B503F090DB
:10237000B6030091B7031091B8032091B1033091D7
:10238000B2034091B3035091B403882309F4B7C05A
:102390008091AF039091B00301969093B003809326
:1023A000AF038AE58093120283E090E090931402D9
:1023B0008093130299C085E12FD90097C1F40E9440
:1023C00042080EE110E064E670E080E090E03CDB63
:1023D0000E94D50801501109B1F70E94900961E0EF
:1023E00070E080E090E030DB0E94650233CD019721
:1023F000B1F782E090E076CD8091AF039091B00389
:1024000001969093B0038093AF038230910521F43D
:102410000E94410789E52ACE8330910509F020CE3C
:102420000E943D0788E522CE80E38093120210923D
:10243000B0031092AF0384E090E090931402809375
:1024400013020E949009A090B903B090BA03C09003
:10245000BB03D090BC03E090B503F090B6030091AD
:10246000B7031091B8032091B1033091B2034091AA
:10247000B3035091B40360918603709187038091F8
:102480008803909189030E944907F2CD8091AE03A1
:10249000811118C060E070E08CE00FDA64E670E053
:1024A00082E00BDA80EA92E090930B0280930A02BA
:1024B00080916900806C80936900EB9A81E0809341
:1024C000AE038DCF60E070E08CE0F7D960E070E0A3
:1024D00082E0F3D9EB9885E691E090930B0280932C
:1024E0000A021092AE037BCF60918603709187033E
:1024F00080918803909189030E94490770CFE092F0
:10250000AA03F092AB030093AC031093AD03A09227
:10251000A603B092A703C092A803D092A903209368
:102520009C0330939D0340939E0350939F03E0913F
:10253000E503F091E60382E08083E091E103F0910E
:10254000E2031082E091E303F091E40380E18083F1
:102550001092ED03E091E903F091EA0386E08083B5
:10256000E091E703F091E803808180618083E0914E
:10257000E703F091E803808188608083E091E703BE
:10258000F091E803808180688083E091E703F09117
:10259000E80380818F7D808380919A0390919B03D3
:1025A000019709F47FC385ED93E00E94C1011816DD
:1025B000190694F785ED93E00E949F0189831A82A2
:1025C0000091B8041091B9040F5F1F4FB80184EB5C
:1025D00094E00E94E203882399F02091B4043091A2
:1025E000B5048091B8049091B904BE016F5F7F4F2C
:1025F000820F931F0E945E1F1093B9040093B804CA
:1026000060EE72E0CE0101960E943804CE01019680
:102610000E94230A882371F063EE72E0CE010796D0
:102620000E943804CE0107960E94FE09811152C013
:1026300001E001C000E061EE72E0CE010D960E9463
:102640003804CE010D960E94230A882379F063EEA8
:1026500072E0CE0143960E943804CE0143960E9458
:10266000FE0981112BC0FF24F39401C0F12C6BE112
:1026700072E0CE0149960E943804CE0149960E942C
:10268000230A882399F063EE72E0CE014F960E94F0
:102690003804CE014F960E94FE0911E0811101C05D
:1026A00010E0CE014F960E94330401C010E0CE012D
:1026B00049960E943304FF2031F001C011E0CE01A1
:1026C00043960E943304CE010D960E9433040023EA
:1026D00031F001C011E0CE0107960E943304CE0113
:1026E00001960E943304112309F456CF65EE72E07F
:1026F000CE0101960E943804CE0101960E94E209A3
:102700009093990380939803CE0101960E9433041D
:1027100080919803909199039093C6038093C50389
:102720006BE573E0CE0101960E943804CE0101965C
:102730000E94E2099093970380939603CE0101963D
:102740000E94330480919603909197039093C8035D
:102750008093C70366E773E0CE0101960E943804B8
:10276000CE0101960E94E209909395038093940311
:10277000CE0101960E9433048091940390919503B9
:102780009093CA038093C90368EE72E0CE0101966C
:102790000E943804CE0101960E94E20990939303AF
:1027A00080939203CE0101960E943304809192039C
:1027B000909193039093CC038093CB036BEE72E0E4
:1027C000CE0101960E943804CE0101960E94E209D2
:1027D0009093910380939003CE0101960E9433045D
:1027E00080919003909191039093CE038093CD03B9
:1027F0006EEE72E0CE0101960E943804CE01019681
:102800000E94E20990938F0380938E03CE0101967C
:102810000E94330480918E0390918F039093D00394
:102820008093CF0361EF72E0CE0101960E943804DD
:10283000CE0101960E94E20990938D0380938C0350
:10284000CE0101960E94330480918C0390918D03F8
:102850009093D2038093D10363EE72E0CE01019690
:102860000E943804CE0101960E94E20990938B03E6
:1028700080938A03CE0101960E94330480918A03DB
:1028800090918B039093D4038093D30364EF72E011
:1028900085ED93E00E94B90584EB94E00E94B209B3
:1028A0008091980390919903181619060CF04BC06B
:1028B0000E94C8098C0166E073E085ED93E00E94F8
:1028C000B90560919803709199036E5F7F4FA801DD
:1028D000CE010196F1D8BE016F5F7F4F8EEA94E082
:1028E0000E94A803CE0101960E9433048EEA94E070
:1028F0000E94B2098EEA94E00E949D03613D47E088
:102900007407810591052CF080ED97E0A0E0B0E020
:1029100012C0683C7105810591054CF06093A003DD
:102920007093A1038093A2039093A3030CC088EC3F
:1029300090E0A0E0B0E08093A0039093A103A09367
:10294000A203B093A303809192039091930318166E
:1029500019060CF04DC00E94C8098C0163E173E0B8
:1029600085ED93E00E94B905609192037091930305
:102970006E5F7F4FA801CE0101969ED8BE016F5FAA
:102980007F4F8CE994E00E94A803CE0101960E943B
:1029900033048CE994E00E94B2098091A0049091E4
:1029A000A104892B29F100919C0410919D0463E6F8
:1029B00072E0C8010E94551F892B19F482E390E050
:1029C00013C06DE572E0C8010E94551F892B19F4F0
:1029D00084E690E009C066E572E0C8010E94551FD8
:1029E000892B31F488EC90E09093110280931002CF
:1029F0008091900390919103181619060CF04BC02A
:102A00000E94C8098C0160E273E085ED93E00E94AA
:102A1000B90560919003709191036E5F7F4FA8019B
:102A2000CE01019649D8BE016F5F7F4F86E994E0E1
:102A30000E94A803CE0101960E94330486E994E027
:102A40000E94B20986E994E00E949D03693C7105E9
:102A5000810591056CF028EC30E040E050E02093D7
:102A6000B5033093B6034093B7035093B80313C034
:102A700097FD09C06093B5037093B6038093B703C5
:102A80009093B80308C01092B5031092B603109249
:102A9000B7031092B80380918E0390918F0318169C
:102AA00019060CF04DC00E94C8098C016DE273E05C
:102AB00085ED93E00E94B90560918E0370918F03BC
:102AC0006E5F7F4FA801CE0101960E945C0DBE0192
:102AD0006F5F7F4F80E994E00E94A803CE010196CA
:102AE0000E94330480E994E00E94B20980E994E0F6
:102AF0000E949D036D3231E07307810591056CF0F2
:102B00008CE291E0A0E0B0E08093B9039093BA0327
:102B1000A093BB03B093BC0313C097FD09C060939F
:102B2000B9037093BA038093BB039093BC0308C0AE
:102B30001092B9031092BA031092BB031092BC0317
:102B400080918C0390918D03181619060CF04CC0DF
:102B50000E94C8098C016AE373E085ED93E00E944E
:102B6000B90560918C0370918D036E5F7F4FA80152
:102B7000CE0101960E945C0DBE016F5F7F4F8AE817
:102B800094E00E94A803CE0101960E9433048AE8D3
:102B900094E00E94B2098AE894E00E949D0367399C
:102BA0007105810591056CF086E990E0A0E0B0E048
:102BB0008093B1039093B203A093B303B093B40393
:102BC00013C097FD09C06093B1037093B203809363
:102BD000B3039093B40308C01092B1031092B203F0
:102BE0001092B3031092B4038091960390919703CF
:102BF0001816190694F467E473E085ED93E00E94DB
:102C0000A4056EE573E085ED93E00E94A40581E0E4
:102C100090E09093A5038093A403809194039091F6
:102C200095031816190694F461E673E085ED93E0B8
:102C30000E94A4056EE573E085ED93E00E94A40573
:102C400082E090E09093A5038093A4038091960383
:102C500090919703181619065CF080919403909157
:102C600095031816190624F01092A5031092A403D8
:102C700085ED93E00E9444028091B8049091B904DC
:102C8000892B49F0E091B404F091B5041092B90495
:102C90001092B804108281E090E090939B0380939F
:102CA0009A037ACC85ED93E00E944402E091E70319
:102CB000F091E80380818F7E8083E091E703F091BB
:102CC000E8038081877F8083E091E703F091E80348
:102CD00080818F778083E091E703F091E803808122
:102CE0008F7D80838091EF038093EE034091B50345
:102CF0005091B6036091B7037091B8038091AA0315
:102D00009091AB03A091AC03B091AD034817590764
:102D10006A077B0741F01A01281A390A832D881F98
:102D20008827881F01C080E00091B9031091BA0381
:102D30002091BB033091BC034091A6035091A7039F
:102D40006091A8037091A903041715072607370798
:102D500039F0D801A41BB50BBAA7A9A7B7FDEBC2E0
:102D6000882309F428C3B10137FE04C066277727FA
:102D70006219730949A55AA54617570794F4CB0160
:102D8000BA0118D6EE24FF24E61AF70AAA27BB27B1
:102D9000A81BB90BBEA3ADA301E010E018A61FA2AB
:102DA0001BC089A59AA506D68B0198A78FA3EE24F0
:102DB000EA94FE2C0FC0C901FDD500271127061B80
:102DC000170BEE27FF27E81BF90BF8A7EFA3EE245C
:102DD000E394F12C1EA21DA28091A4039091A5035F
:102DE00081309105F9F08230910509F475C0892B85
:102DF00009F0CBC08091AE03882349F0EB9885E6BB
:102E000091E090930B0280930A021092AE0360E06F
:102E100070E08CE00E945D0C60E070E082E00E9457
:102E20005D0CB3C060E070E08CE00E945D0C60E07F
:102E300070E082E00E945D0C8091AE0381110FC0B2
:102E400080EA92E090930B0280930A0280916900DD
:102E5000806C80936900EB9A81E08093AE03C12C73
:102E6000D12C6091A0037091A1038091A203909155
:102E7000A303F4D34B015C012091860330918703B7
:102E80004091880350918903E3D3882309F47DC0DE
:102E9000B60182E00E945D0C0E94D5084090860336
:102EA000509087036090880370908903A30192017A
:102EB000C501B40177D518161CF4CC24CA94D12CC2
:102EC000A3019201C501B401C3D387FFCACFF1E0CA
:102ED000CF1AD10830F6C3CF60E070E08CE00E94DA
:102EE0005D0C60E070E082E00E945D0C8091AE03BA
:102EF00081110FC080EA92E090930B0280930A0246
:102F000080916900806C80936900EB9A81E08093E6
:102F1000AE03C12CD12C6091A0037091A1038091CC
:102F2000A2039091A3039AD34B015C0120918603E5
:102F300030918703409188035091890389D3882376
:102F400021F1B6018CE00E945D0C0E94D5084090F2
:102F50008603509087036090880370908903A301D3
:102F60009201C501B4011ED518161CF4CC24CA94D4
:102F7000D12CA3019201C501B4016AD387FFCBCF45
:102F800031E0C31AD10838F6C4CF2091F80430914B
:102F9000F904032E000C440B550B60E077E883E93D
:102FA00093E03DD5CA01B9018090100290901102C2
:102FB0009401990C440B550B32D52093F4043093B3
:102FC000F5044093F6045093F7048090B103909079
:102FD000B203A090B303B090B40380919C0390918E
:102FE0009D03A0919E03B0919F0388169906AA069F
:102FF000BB064CF540909C0350909D0360909E034F
:1030000070909F0384149504A604B704B4F40E943E
:10301000D50866EF7FEF82EF94E00E94960651E0BC
:10302000451A51086108710840929C0350929D0313
:1030300060929E0370929F03DDCF45284628472863
:1030400079F56DE22AC040909C0350909D036090FA
:103050009E0370909F03481459046A047B04B4F4DF
:103060000E94D5086AE070E082EF94E00E94960624
:103070008FEF481A580A680A780A40929C035092C7
:103080009D0360929E0370929F03DDCF96E94916DF
:1030900051046104710421F46BE28AE50E941C076B
:1030A0008090100290901102092C000CAA08BB0815
:1030B00020912C0530912D05032E000C440B550B4F
:1030C000412C87E8582E83E9682E83E0782EC301CF
:1030D000B201A5D4CA01B901A5019401A0D42093DD
:1030E00028053093290540932A0550932B052091FC
:1030F000120530911305032E000C440B550BC30130
:10310000B2018DD4CA01B901A501940188D42093DC
:103110000E0530930F0540931005509311058AE07A
:103120008E9DD0018F9DB00D1124B8ABAFA7809FAD
:10313000F001819FF00D1124FAABE9AB2DA13EA166
:103140002901330F660877088FA198A5092E000C76
:10315000AA0BBB0B8BA79CA7ADA7BEA79701FF0C23
:10316000440B550B2BAB3CAB4DAB5EABC801110F09
:10317000AA0BBB0B8FAB98AFA9AFBAAFC090AA0395
:10318000D090AB03E090AC03F090AD038091B50319
:103190009091B603A091B703B091B8038419950933
:1031A000A609B7098C159D05AE05BF0509F44CC0ED
:1031B0008090A6039090A703A090A803B090A903C5
:1031C0008091B9039091BA03A091BB03B091BC0365
:1031D0002BA53CA54DA55EA5821B930BA40BB50B9F
:1031E00088159905AA05BB0579F10E94D5086FA538
:1031F00078A986E295E00E9496068BA99CA9ADA9C4
:10320000BEA9C80ED91EEA1EFB1EC092AA03D09208
:10321000AB03E092AC03F092AD0369A97AA98CE00C
:1032200095E00E9496062FA938AD49AD5AAD820EA1
:10323000931EA41EB51E8092A6039092A703A0928F
:10324000A803B092A9039ACF1AE04DA15EA1149FE2
:10325000B001159F700D112486E295E00E9496063C
:10326000C40CD51CE61CF71CC092AA03D092AB0379
:10327000E092AC03F092AD038FA198A5189FB00126
:10328000199F700D11248CE095E00E9496068091A4
:10329000A6039091A703A091A803B091A9032BA521
:1032A0003CA54DA55EA5820F931FA41FB51F80935B
:1032B000A6039093A703A093A803B093A903CD28D6
:1032C000CE28CF2821F46DE288E50E941C0780916A
:1032D000AA039091AB03A091AC03B091AD03883CDD
:1032E0009105A105B10521F46BE288E50E941C0758
:1032F0008091A6039091A703A091A803B091A90380
:10330000892B8A2B8B2B21F46DE289E50E941C0707
:103310008091A6039091A703A091A803B091A9035F
:103320008C329140A105B10509F059C86BE289E5DD
:103330000E941C0754C829A53AA531952195310949
:10334000882329F1B10137FE04C066277727621967
:1033500073092617370774F4CB01B9012BD3EE2478
:10336000FF24E61AF70AEE27FF27E81BF90BFEA356
:10337000EDA31EC0C9011ED300271127061B170B82
:1033800022273327281B390B38A72FA310CDB101D3
:1033900037FE04C066277727621973092617370797
:1033A0000CF009CDCB01B90105D37B019EA38DA300
:1033B0000FEF1FEFF3CCB10137FE04C0662777276C
:1033C0006219730949A55AA54617570744F4CB015A
:1033D00069A57AA5EFD27B019EA38DA3DDCC89A53B
:1033E0009AA5E8D28B0198A78FA3F1CC8AE894E044
:1033F0000E94330480E994E00E94330486E994E05B
:103400000E9433048CE994E00E94330482EA94E041
:103410000E94330488EA94E00E9433048EEA94E028
:103420000E94330484EB94E00C9433040F931F93B5
:10343000E5EDF3E01382128288EE93E0A0E0B0E0C5
:1034400084839583A683B7838EEB92E091838083F8
:1034500085EC90E09587848784EC90E09787868759
:1034600080EC90E0918B808B81EC90E0938B828B51
:1034700082EC90E0958B848B86EC90E0978B868B2A
:10348000118E128E138E148EE2E7F4E013821282F4
:1034900080ED92E09183808388E284838FEF85833F
:1034A00089E286838AE287838BE280878CE2818748
:1034B0008DE282871386148615861686178681E02C
:1034C0000E94CE0B60E673E084EB94E00E94380427
:1034D00060E673E08EEA94E00E94380460E673E0F0
:1034E00088EA94E00E94380460E673E082EA94E09F
:1034F0000E94380460E673E08CE994E00E9438048E
:1035000060E673E086E994E00E94380460E673E0C8
:1035100080E994E00E94380460E673E08AE894E071
:103520000E943804E4EEF4E02CED32E03183208395
:1035300012821382148215828AE090E09783868338
:1035400010861186E6EDF4E0318320831282138227
:10355000148215829783868310861186E8ECF4E046
:10356000318320831282138214821582978386838B
:1035700010861186EAEBF4E03183208312821382F5
:103580001482158297838683108611860AE310E0E1
:1035900029E330E048E350E067E370E086E295E03D
:1035A0000E949E0B0EE310E02DE330E04CE350E070
:1035B0006BE370E08CE095E00E949E0B07E010E06A
:1035C00026E030E045E050E064E070E082EF94E017
:1035D0000E949E0B1F910F9108951F93FC01992744
:1035E0008827BC01E89411911032E9F3193010F0EA
:1035F0001E30C8F31B3249F01D3241F4689405C0F7
:1036000012D0610F711D811D911D119110531A303F
:10361000B8F33EF490958095709561957F4F8F4FEC
:103620009F4F1F910895592F482F372F262F660F30
:10363000771F881F991F660F771F881F991F620FBA
:10364000731F841F951F660F771F881F991F08958A
:1036500040D008F481E00895E89409C097FB3EF457
:1036600090958095709561957F4F8F4F9F4F9923CF
:10367000A9F0F92F96E9BB279395F695879577954D
:103680006795B795F111F8CFFAF4BB0F11F460FF0D
:103690001BC06F5F7F4F8F4F9F4F16C0882311F065
:1036A00096E911C0772321F09EE8872F762F05C079
:1036B000662371F096E8862F70E060E02AF09A9514
:1036C000660F771F881FDAF7880F9695879597F909
:1036D0000895990F0008550FAA0BE0E8FEEF1616A3
:1036E0001706E807F907C0F012161306E407F507F6
:1036F00098F0621B730B840B950B39F40A2661F06A
:10370000232B242B252B21F408950A2609F4A1400C
:10371000A6958FEF811D811D08950BD078C069D0CB
:1037200028F06ED018F0952309F05AC05FC011241C
:10373000A2C07ED0A0F3959FD1F3950F50E0551F06
:10374000629FF001729FBB27F00DB11D639FAA27F6
:10375000F00DB11DAA1F649F6627B00DA11D661F45
:10376000829F2227B00DA11D621F739FB00DA11D66
:10377000621F839FA00D611D221F749F3327A00D20
:10378000611D231F849F600D211D822F762F6A2FBC
:1037900011249F5750408AF0E1F088234AF0EE0F41
:1037A000FF1FBB1F661F771F881F91505040A9F74E
:1037B0009E3F510570F014C05EC05F3FECF3983E31
:1037C000DCF3869577956795B795F795E7959F5FB5
:1037D000C1F7FE2B880F911D9695879597F908954F
:1037E00097F99F6780E870E060E008959FEF80ECB4
:1037F000089500240A941616170618060906089557
:1038000000240A9412161306140605060895092EBC
:103810000394000C11F4882352F0BB0F40F4BF2B2B
:1038200011F460FF04C06F5F7F4F8F4F9F4F08956B
:1038300057FD9058440F551F59F05F3F71F0479561
:10384000880F97FB991F61F09F3F79F08795089546
:10385000121613061406551FF2CF4695F1DF08C065
:10386000161617061806991FF1CF86957105610582
:1038700008940895E894BB2766277727CB0197F92A
:1038800008955058BB27AA270ED0C1CFB2DF30F021
:10389000B7DF20F031F49F3F11F41EF4A7CF0EF4F0
:1038A000E095E7FB9DCFE92FC3DF80F3BA176207EE
:1038B00073078407950718F071F49EF5DBCF0EF4BB
:1038C000E0950B2EBA2FA02D0B01B90190010C0130
:1038D000CA01A0011124FF27591B99F0593F50F448
:1038E000503E68F11A16F040A22F232F342F4427A0
:1038F000585FF3CF469537952795A795F040539598
:10390000C9F77EF41F16BA0B620B730B840BBAF067
:103910009150A1F0FF0FBB1F661F771F881FC2F7D2
:103920000EC0BA0F621F731F841F48F487957795E6
:103930006795B795F7959E3F08F0B3CF9395880F9D
:1039400008F09927EE0F97958795089579DF88F00D
:103950009F5790F0B92F9927B751A0F0D1F0660F7B
:10396000771F881F991F1AF0BA95C9F712C0B13096
:1039700081F080DFB1E008957DCF672F782F882711
:10398000B85F39F0B93FCCF3869577956795B395D5
:10399000D9F73EF490958095709561957F4F8F4F44
:1039A0009F4F089596DE08F48FEF089592DE880BFE
:1039B000990B089597FB072E16F4009406D077FD17
:1039C00008D051D007FC05D03EF4909581959F4FCB
:1039D0000895709561957F4F0895A1E21A2EAA1B54
:1039E000BB1BFD010DC0AA1FBB1FEE1FFF1FA217AF
:1039F000B307E407F50720F0A21BB30BE40BF50BAC
:103A0000661F771F881F991F1A9469F76095709534
:103A1000809590959B01AC01BD01CF010895052EC5
:103A200097FB16F400940FD057FD05D0D6DF07FCA6
:103A300002D046F408C050954095309521953F4FEF
:103A40004F4F5F4F089590958095709561957F4F8A
:103A50008F4F9F4F0895EE0FFF1F881F8BBF07905A
:103A6000F691E02D1994AA1BBB1B51E107C0AA1FB8
:103A7000BB1FA617B70710F0A61BB70B881F991F0F
:103A80005A95A9F780959095BC01CD0108950F93A3
:103A90001F93CF93DF938230910510F482E090E082
:103AA000E0914B05F0914C0520E030E0A0E0B0E063
:103AB000309719F1408151810281138148175907CC
:103AC000C8F08417950769F4109731F012960C939B
:103AD000129713961C9327C000934B0510934C0527
:103AE00022C02115310519F04217530718F49A0125
:103AF000BD01EF01DF01F801DBCF21153105F9F040
:103B0000281B390B2430310580F48A819B81611593
:103B1000710521F0FB019383828304C090934C05CF
:103B200080934B05FE01329644C0FE01E20FF31F65
:103B30008193919322503109398328833AC020918F
:103B4000490530914A05232B41F420911702309109
:103B5000180230934A0520934905209115023091AF
:103B600016022115310541F42DB73EB740911902D7
:103B700050911A02241B350BE0914905F0914A053A
:103B8000E217F307A0F42E1B3F0B2817390778F034
:103B9000AC014E5F5F4F2417350748F04E0F5F1F93
:103BA00050934A05409349058193919302C0E0E008
:103BB000F0E0CF01DF91CF911F910F910895CF9346
:103BC000DF93009709F481C0FC01329713821282BF
:103BD000A0914B05B0914C05109781F42081318163
:103BE000820F931F2091490530914A052817390704
:103BF00051F5F0934A05E093490567C0ED0120E0D7
:103C000030E0CE17DF0740F44A815B819E01411509
:103C10005105F1F0EA01F5CFD383C2834081518190
:103C2000840F951FC817D90759F488819981840F8B
:103C3000951F0296918380838A819B8193838283DF
:103C40002115310529F4F0934C05E0934B053DC057
:103C5000E901FB83EA8349915991C40FD51FEC1701
:103C6000FD0761F480819181840F951F0296E9011F
:103C700099838883828193819B838A83E0E0F0E04B
:103C800012968D919C911397009719F0FD01DC011C
:103C9000F7CF8D919C9111979D012E5F3F4F820F21
:103CA000931F2091490530914A052817390769F477
:103CB000309729F410924C0510924B0502C01382E4
:103CC0001282B0934A05A0934905DF91CF910895E0
:103CD0006F927F928F929F92AF92BF92CF92DF921C
:103CE000EF92FF920F931F93CF93DF93009781F48E
:103CF000CB01DF91CF911F910F91FF90EF90DF905B
:103D0000CF90BF90AF909F908F907F906F90BFCEDD
:103D1000FC01E60FF71F9C0122503109E217F3075F
:103D200008F4A5C0EC01D9010D911C91119706175B
:103D30001707A8F00530110508F497C0C8010497CB
:103D40008617970708F491C002501109061B170B3C
:103D5000019311936D937C93CF0131DF86C05B019A
:103D6000A01AB10A4C01800E911EA0914B05B09192
:103D70004C05612C712CE12CF12C109709F446C0F4
:103D80008D919C911197A815B905B1F56C0142E090
:103D9000C40ED11CCA14DB0478F14C018A189B08AC
:103DA000640142E0C40ED11C1296BC901297139687
:103DB000AC91B5E0CB16D10440F0B282A3839182DE
:103DC0008082D9016D937C9309C00E5F1F4F800FD5
:103DD000911FF90191838083EB2DFA2FE114F104F7
:103DE00031F0D7011396FC93EE9312973EC0F093F7
:103DF0004C05E0934B0539C06816790608F43C0180
:103E00007D0112960D90BC91A02DB7CF80914905F0
:103E100090914A0588169906E1F466167706C8F46B
:103E20008091150290911602009741F48DB79EB7CC
:103E30004091190250911A02841B950BE817F9075B
:103E4000B0F4F0934A05E0934905F901718360836A
:103E50000CC0CB011CDE7C01009749F0A801BE011B
:103E60001BD0CE01ACDEC70104C0CE0102C080E091
:103E700090E0DF91CF911F910F91FF90EF90DF9035
:103E8000CF90BF90AF909F908F907F906F9008954C
:103E900081E090E0F89441C0FB01DC0102C0019098
:103EA0000D9241505040D8F70895FB01DC018D91EF
:103EB000019080190110D9F3990B0895FB01DC01E1
:103EC00001900D920020E1F70895FB01DC014150C3
:103ED000504030F08D910190801919F40020B9F70D
:103EE000881B990B0895FB0151915523A9F0BF013F
:103EF000DC014D9145174111E1F759F4CD010190D5
:103F0000002049F04D9140154111C9F3FB014111C9
:103F1000EFCF81E090E00197089511E0C1E3D1E097
:103F200000E005C0802FFE0196DD2196011DC23301
:0C3F3000D10780E00807B1F7F894FFCF3C
:103F3C006501650165016501650165016501650145
:103F4C00320030010000004D058000002400486F55
:103F5C006D65205265743F203C533E002020204369
:103F6C004E4320526F7574657200696E2070726FCB
:103F7C0067726573732E2E2E004D616368696E65D2
:103F8C0020486F6D650052617069646F004D656407
:103F9C00696F004C656E746F00436C6F73652074B1
:103FAC00686520436F76657221004572726F3A2006
:103FBC00506C6561736500583A2020202020202029
:103FCC0020593A00533A20202020202020205A3A11
:103FDC000020202020417869733A0020204F76651C
:103FEC0072202054726176656C0000000000F801AC
:103FFC00660190014402C1019F01B3010000000061
:10400C00910666019D02640100000000B002AC0242
:10401C000A24002300533D00463D00583D00593D05
:10402C00005A3D00434F4D414E444F53205345528F
:10403C0049414C3A200056414C4F522044452053A4
:10404C003A200056414C4F5220444520463A20001D
:10405C0056414C4F5220444520583A200056414C72
:10406C004F5220444520593A200056414C4F522083
:10407C004445205A3A2000524F544143414F20535B
:10408C00454E5449444F2043573A204D33000D0AB6
:10409C0000524F544143414F2053454E5449444FD5
:1040AC00204343573A204D34006E616E00696E66B2
:0640BC00006F76660000B3
:00000001FF
