:1000000031C1000076C5000049C500001CC50000D4
:10001000EFC40000C2C4000095C4000068C4000022
:100020003BC4000050C100004EC100004CC10000A4
:100030004AC1000048C1000046C1000044C10000A0
:1000400042C1000040C100003EC100003CC10000B0
:100050003AC1000038C1000036C100000C94F80D10
:1000600032C10000B0C5000085C500002CC10000F1
:100070002AC1000028C1000026C1000024C10000E0
:1000800022C1000020C100001EC100001CC10000F0
:100090001AC1000018C1000016C1000014C1000000
:1000A00012C1000010C100000EC100000CC1000010
:1000B0000AC1000008C1000006C1000004C1000020
:1000C00002C1000000C10000FEC00000FCC0000032
:1000D000FAC00000F8C00000F6C00000F4C0000044
:1000E000F2C000004303480350035B035D03620357
:1000F0006A037503830385034B094E093D094109D2
:1001000047098509520956095C09600964096A09A9
:100110006E097209850978097C098009900C950C93
:100120009A0CA40CAE0C270DB80CC00CC80CD20C49
:10013000DC0CE60CF50CFF0C270D090D130D1D0D45
:1001400000002100240027002A002D003000330089
:1001500001010000040107010A010000220025003E
:1001600028002B002E0031003400020100000501A0
:1001700008010B01000020002300260029002C00AC
:100180002F003200000100000301060109010505EE
:100190000505070508080808020202020A0A0808FD
:1001A000040404040101010101010101030303032B
:1001B00003030303040707070C0C0C0C0C0C0C0CBA
:1001C0000202020206060606060606060B0B0B0BCB
:1001D0000B0B0B0B010210202008081020401020F0
:1001E00040800201020108040201010204081020FB
:1001F00040808040201008040201800402018040F9
:100200002010080402010804020101020408102061
:100210004080010204081020408000000A0B0209FF
:100220000C0D0E0807030401000000000000000090
:1002300000000000000000000000000000000000BE
:10024000000000000000121110000000000000007B
:10025000000000000000000000000000000000009E
:10026000A01B801B11241FBECFEFD1E2DEBFCDBF8C
:1002700000E00CBF25E0A6E8B3E001C01D92AD345C
:10028000B207E1F713E0A0E0B2E0E0E5F2E400E05D
:100290000BBF02C007900D92A638B107D9F711E045
:1002A000C1E3D1E000E006C021970109802FFE01E3
:1002B0000E94B51EC033D10780E00807A9F70E944D
:1002C000420E0C9417219CCE08950895CF92DF9290
:1002D000EF92FF920F931F93CF93DF936C017A01FC
:1002E0008B01C0E0D0E0CE15DF0581F0D8016D9123
:1002F0008D01D601ED91FC910190F081E02DC601B8
:100300001995892B11F02196EECF7E01C701DF915F
:10031000CF911F910F91FF90EF90DF90CF900895B4
:10032000FC01538D448D252F30E0842F90E0821BFB
:10033000930B541710F0CF96089501970895FC0180
:10034000918D828D981761F0828DDF01A80FB11D0C
:100350005D968C91928D9F5F9F73928F90E0089530
:100360008FEF9FEF0895FC01918D828D981731F0EA
:10037000828DE80FF11D858D90E008958FEF9FEF3E
:100380000895FC01918D228D892F90E0805C9F4F14
:10039000821B91098F739927089585ED93E0F1DF12
:1003A00021E0892B09F420E0822F0895FC01848D3F
:1003B000DF01A80FB11DA35ABF4F2C91848D90E08F
:1003C00001968F739927848FA689B7892C93A0896A
:1003D000B1898C91837080648C93938D848D9813F4
:1003E00006C00288F389E02D80818F7D8083089587
:1003F000EF92FF920F931F93CF93DF93EC0181E075
:10040000888F9B8D8C8D981305C0E889F989808130
:1004100085FD25C0F62E0B8D10E00F5F1F4F0F736B
:100420001127E02E8C8DE8120BC00FB607FCFACF17
:10043000E889F989808185FFF5CFCE01B7DFF2CF5A
:100440008B8DFE01E80FF11DE35AFF4FF0829FB73D
:10045000F8940B8FEA89FB89808180620AC09FB77C
:10046000F894EE89FF896083E889F9898081837037
:10047000806480839FBF81E090E0DF91CF911F91E6
:100480000F91FF90EF900895CF93DF93EC01888D4B
:100490008823C1F0EA89FB89808185FD05C0A88990
:1004A000B9898C9186FD0EC00FB607FCF5CF80810F
:1004B00085FFF2CFA889B9898C9185FFEDCFCE0158
:1004C00075DFE8CFDF91CF91089580E090E0892B30
:1004D00019F063DF811125C080E090E0892B41F0A5
:1004E00080E090E0892B21F00E94000081111CC067
:1004F00080E090E0892B41F080E090E0892B21F0B2
:100500000E940000811113C080E090E0892BA1F0CF
:1005100080E090E0892B81F00E94000081110AC0E8
:1005200008950E940000D8CF0E940000E1CF0E94F1
:100530000000EACF0C940000089580E090E0089558
:100540008091C3039091C40301969093C403809358
:10055000C30308950E94D220862F642F0C946E0B43
:10056000FC0181850E94180B21E0892B09F420E011
:10057000822F0895CF93DF93EC0160E08E810E947B
:10058000400B61E08E810E94400B60E08E810E94F2
:10059000400B8BE891E00197F1F7DF91CF9108953F
:1005A0000F931F93CF93DF93EC018B01888599857F
:1005B0000297F1F46130710569F024F4672BC1F4FE
:1005C00060E009C06230710559F06330710581F453
:1005D00060E007C061E08C850E94400B61E005C0CF
:1005E00061E08C850E94400B60E08E850E94400B8C
:1005F000888599850497B9F501301105B1F04CF45F
:100600000115110581F561E08C850E94400B60E0C9
:1006100011C002301105B9F00330110521F561E078
:100620008C850E94400B60E013C060E08C850E94C6
:10063000400B61E08E850E94400B61E088890E943A
:10064000400B60E00DC060E08C850E94400B61E0D3
:100650008E850E94400B60E088890E94400B61E01B
:100660008A890E94400B88859985059709F060C0AA
:100670000A30110508F05CC0F8018827EE58FF4FDA
:100680008F4F0C94B51E60E08C85FAD761E041C0B5
:1006900060E08C85F5D761E08E85F2D760E03CC0E4
:1006A00060E08C85EDD761E08E85EAD760E08889CF
:1006B000E7D761E034C060E001C061E08C85E0D73D
:1006C00061E004C061E08C85DBD760E08E85D8D71F
:1006D00060E007C061E08C85D3D760E08E85D0D71D
:1006E00061E08889CDD761E00AC061E08C85C8D718
:1006F00060E08E85C5D761E08889C2D760E08A89CD
:10070000BFD760E00FC061E001C060E08C85B8D762
:1007100060E08E85B5D761E08889B2D760E08A89CC
:10072000AFD761E08C89DF91CF911F910F91A8C75E
:10073000DF91CF911F910F910895FC0180819181EC
:10074000009711F00C94771C60E070E0CB010895E5
:100750000F931F93CF93DF938C01EB01FC018081FA
:100760009181009739F06881798161157105A1F453
:100770000E94691F88819981F801918380838A8111
:100780009B81938382838C819D819583848319824D
:1007900018821B821A820FC0F801428153812C817A
:1007A0003D814217530720F30E94E8208C819D81F0
:1007B000F801958384831D821C82DF91CF911F9164
:1007C0000F9108950F931F93CF93DF93EC018881CE
:1007D0009981009729F02A813B812617370788F4F1
:1007E0008B016F5F7F4F0E94F21F009761F099832A
:1007F00088831B830A832C813D81232B11F4FC0108
:10080000108281E001C080E0DF91CF911F910F91B4
:100810000895EF92FF920F931F93CF93DF93EC0114
:100820007B018A01BA01CEDF2881398181110DC097
:100830002115310519F0C9010E94691F198218821A
:100840001D821C821B821A8206C01D830C83B70185
:10085000C9010E94E820CE01DF91CF911F910F9135
:10086000FF90EF900895FC01808191810C94691FA5
:10087000FC0111821082138212821582148261158A
:10088000710549F0FB0101900020E9F73197AF01B4
:10089000461B570BBECF08951F920F920FB60F92B3
:1008A00011240BB60F922F933F934F935F936F9347
:1008B0007F938F939F93AF93BF93EF93FF93E091B9
:1008C0000E02F0910F021995FF91EF91BF91AF9138
:1008D0009F918F917F916F915F914F913F912F9158
:1008E0000F900BBE0F900FBE0F901F9018951F9288
:1008F0000F920FB60F9211240BB60F922F933F93C6
:100900004F935F936F937F938F939F93AF93BF9317
:10091000EF93FF93E0910C02F0910D021995FF9176
:10092000EF91BF91AF919F918F917F916F915F9167
:100930004F913F912F910F900BBE0F900FBE0F90D4
:100940001F9018951F920F920FB60F9211240BB69D
:100950000F922F933F934F935F936F937F938F9358
:100960009F93AF93BF93EF93FF93E0910202F091B7
:1009700003021995FF91EF91BF91AF919F918F91D4
:100980007F916F915F914F913F912F910F900BBE8F
:100990000F900FBE0F901F9018951F920F920FB6D9
:1009A0000F9211240BB60F922F933F934F935F93A7
:1009B0006F937F938F939F93AF93BF93EF93FF9327
:1009C000E0910002F09101021995FF91EF91BF9122
:1009D000AF919F918F917F916F915F914F913F91D7
:1009E0002F910F900BBE0F900FBE0F901F90189578
:1009F0001F920F920FB60F9211240BB60F922F93E6
:100A00003F934F935F936F937F938F939F93AF9396
:100A1000BF93EF93FF93E0910A02F0910B021995B7
:100A2000FF91EF91BF91AF919F918F917F916F91C6
:100A30005F914F913F912F910F900BBE0F900FBE82
:100A40000F901F9018951F920F920FB60F921124BE
:100A50000BB60F922F933F934F935F936F937F93B8
:100A60008F939F93AF93BF93EF93FF93E09108020F
:100A7000F09109021995FF91EF91BF91AF919F916C
:100A80008F917F916F915F914F913F912F910F9037
:100A90000BBE0F900FBE0F901F9018951F920F92D4
:100AA0000FB60F9211240BB60F922F933F934F93D3
:100AB0005F936F937F938F939F93AF93BF93EF93C6
:100AC000FF93E0910602F09107021995FF91EF91D3
:100AD000BF91AF919F918F917F916F915F914F9156
:100AE0003F912F910F900BBE0F900FBE0F901F9054
:100AF00018951F920F920FB60F9211240BB60F92FA
:100B00002F933F934F935F936F937F938F939F9315
:100B1000AF93BF93EF93FF93E0910402F09105022E
:100B20001995FF91EF91BF91AF919F918F917F9117
:100B30006F915F914F913F912F910F900BBE0F904E
:100B40000FBE0F901F9018956115710579F0FB018C
:100B500001900020E9F73197AF01461B570BDC01EC
:100B6000ED91FC910280F381E02D199480E090E0FA
:100B70000895EACF1F920F920FB60F9211240BB671
:100B80000F922F933F934F935F936F937F938F9326
:100B90009F93AF93BF93EF93FF9385ED93E006DCB4
:100BA000FF91EF91BF91AF919F918F917F916F9145
:100BB0005F914F913F912F910F900BBE0F900FBE01
:100BC0000F901F9018951F920F920FB60F9211243D
:100BD0000BB60F922F938F939F93EF93FF93E09118
:100BE000E503F091E6038081E091EB03F091EC03E3
:100BF00082FD12C090818091EE038F5F8F732091F0
:100C0000EF03821751F0E091EE03F0E0EB52FC4F5E
:100C1000958F8093EE0301C08081FF91EF919F91AA
:100C20008F912F910F900BBE0F900FBE0F901F90C2
:100C30001895CF92DF92EF92FF920F931F93CF936D
:100C4000DF936C017C0187E0E80EF11CC0E0D0E08E
:100C5000062F10E0B8010C2E02C0759567950A9416
:100C6000E2F76170F70181917F010AD52196C430C6
:100C7000D10581F7C601DF91CF911F910F91FF90B0
:100C8000EF90DF90CF9076CCCF92DF92EF92FF92F1
:100C90000F931F93CF93DF93EC01F62E642F8C817B
:100CA000EFD48D818F3F11F060E0EAD48F850F2D56
:100CB00010E084FF23C06E0187E0C80ED11CE12C38
:100CC000F12CB8010E2C02C0759567950A94E2F7D5
:100CD0006170F60181916F01D3D4FFEFEF1AFF0A23
:100CE00088E0E816F10469F7CE01DF91CF911F91FA
:100CF0000F91FF90EF90DF90CF903CCCB80184E053
:100D0000759567958A95E1F7CE0193DF6F2DCE013A
:100D1000DF91CF911F910F91FF90EF90DF90CF90D7
:100D200088CF41E0B1DF81E090E008954F925F927B
:100D30006F927F928F929F92AF92BF92CF92DF92EB
:100D4000EF92FF920F931F93CF93DF93EC018B01F0
:100D500077FF04C000271127061B170B161617066E
:100D60002CF481E090E09983888304C0672B11F014
:100D70001982188284E0E82EF12C9AE0C92ED12C39
:100D80000115110509F447C002D78E889F88A88CE9
:100D9000B98C2B013C01481859086A087B088A80E5
:100DA0009B80AC80BD80481459046A047B0440F3E6
:100DB0006E8B7F8B888F998F288139818A859B855F
:100DC0002130310559F401969B878A872E813F8116
:100DD0008217930771F41B861A860BC0892B21F4A6
:100DE0008E819F819B878A878A859B8501979B87B8
:100DF0008A8701501109288539858A859B85253088
:100E0000310511F4B60101C0B7010E94641EBC0196
:100E1000CE01C6DBB5CFDF91CF911F910F91FF902F
:100E2000EF90DF90CF90BF90AF909F908F907F908A
:100E30006F905F904F900895CF93DF93D82FC62F78
:100E40006AD260E080E06ED26BEA72E082E794E002
:100E500090DE61E080E066D261EA72E082E794E0D1
:100E600088DE61E08AE05ED28D2F6DD261E08BE09A
:100E700059D28C2FDF91CF9166C24F925F926F92C1
:100E80007F928F929F92AF92BF92CF92DF92EF921A
:100E9000FF920F931F93CF93DF93CDB7DEB72897C1
:100EA0000FB6F894DEBF0FBECDBF2B013C012983E6
:100EB0003A834B835C83ED82FE820F831887450162
:100EC000560160E080E02ED264E972E082E794E0AF
:100ED00050DE60E086E026D2A3019201C301B20198
:100EE0000E94601E882319F069E773E01AC073013D
:100EF0006201E894F7F82FEF3FEF4FE75FE7C70194
:100F0000B6010E94601E811110C02FEF3FEF4FE726
:100F10005FE7C701B6010E94B21C181634F46DE7F2
:100F200073E082E794E010DE6DC02FEF3FEF4FE7F4
:100F30005FE4C301B2010E945C1E18161CF461E854
:100F400073E0EFCF2FEF3FEF4FE75FECC301B2014C
:100F50000E94B21C87FDF3CF20E030E0A901C3015D
:100F6000B2010E94B21C87FF06C08DE2ECD177FA75
:100F7000709477F870942AE037ED43EA5BE3C3019D
:100F8000B2010E94CC1D2B013C010E94301E6B015E
:100F90007C010E94B61C9B01AC01C301B2010E94FE
:100FA000CB1D2B013C014AE0C701B60175D28EE290
:100FB000CAD120E030E040E251E4C301B2010E9416
:100FC000171D6B017C010E94301E2B01612C712CBE
:100FD0004AE0C301B20160D2C301B2010E94B61C53
:100FE0009B01AC01C701B6010E94CB1D20E030E09F
:100FF00040E251E40E94171D0E94301E80E090E004
:101000004AE04AD260E08FE08DD169817A818B819C
:101010009C8184D261E080E085D167E872E082E75C
:1010200094E0A7DD61E086E07DD16D817E818F81D6
:10103000988574D261E08FE075D1C501B40128961E
:101040000FB6F894DEBF0FBECDBFDF91CF911F91D9
:101050000F91FF90EF90DF90CF90BF90AF909F9057
:101060008F907F906F905F904F9058C254D160E006
:1010700080E058D16AE772E082E794E07ADD61E0CF
:1010800080E050D169E672E082E794E072CD43C11E
:101090008AEB94E06AC288EC94E067C284EE94E044
:1010A0006ED286ED94E06BD288EC94E068D28AEB45
:1010B00094E065C20F931F93CF938ED50091BF0329
:1010C0001091C0032091C1033091C2030C501E4FF8
:1010D0002F4F3F4F6017710782079307B0F183E0EE
:1010E000A7D2892B51F4C091BE036C2F8DE0C8D2DA
:1010F00061E06C276093BE0303C061E08DE0C0D265
:101100006091C3037091C403072E000C880B990BE8
:101110000E94B81C20E030E040EC50E40E94171D13
:101120006093860370938703809388039093890369
:101130001092C4031092C3034FD56093BF03709302
:10114000C0038093C1039093C203CF911F910F916D
:1011500008958F929F92AF92BF92CF92DF92EF92BB
:10116000FF92CF93DF9320912C0530912D05032E14
:10117000000C440B550B812C87E8982E83E9A82E90
:1011800083E0B82EC501B4010E94991EC12CD12C58
:101190007601CA01B901A70196010E94991E209308
:1011A00028053093290540932A0550932B0520915B
:1011B000120530911305032E000C440B550BC5018D
:1011C000B4010E94991ECA01B901A70196010E94AB
:1011D000991E20930E0530930F05409310055093F0
:1011E00011052091F8043091F904032E000C440BF2
:1011F000550BC501B4010E94991ECA01B901A7018E
:1012000096010E94991E2093F4043093F5044093B4
:10121000F6045093F70460E070E082E05AD360E097
:1012200070E08CE056D322DFCEE1D0E064E670E0DF
:1012300080E090E015D43EDF2197C1F728DF81E000
:1012400090E09093140280931302DF91CF91FF906E
:10125000EF90DF90CF90BF90AF909F908F900895C8
:1012600090E0FC013197E231F10508F04EC088278B
:10127000E458FF4F8F4F0C94B51E809180008F77FC
:1012800003C0809180008F7D8093800008958091BD
:101290008000877FF9CF84B58F7702C084B58F7DBA
:1012A00084BD08958091B0008F7703C08091B00015
:1012B0008F7D8093B0000895809190008F7707C054
:1012C000809190008F7D03C080919000877F8093F4
:1012D000900008958091A0008F7707C08091A000B2
:1012E0008F7D03C08091A000877F8093A000089528
:1012F000809120018F7707C0809120018F7D03C0EE
:1013000080912001877F80932001089540E0682F1D
:1013100082E794E0B9CC81E0F9DF8BE39FE10197AC
:10132000F1F70895643008F063E09091850469173F
:1013300010F06FEF690FE62FF0E0EE58FB4F948945
:10134000890F8068E3CF41E0682F82E794E09CDC5E
:1013500081E090E00895CF93DF93EC0169871886D0
:10136000FFD8882319F088858360888735D46A83FD
:101370007B838C839D83DF91CF910895CF93DF93FF
:10138000FC01448155816081718185ED93E00E946B
:101390006601EC016EE573E085ED93E0D5DB8C0F23
:1013A0009D1FDF91CF910895BC018091D30390914F
:1013B000D403E5ECF3E027E030E021503109329727
:1013C0002115310551F04685578564177507ACF72F
:1013D0004817590794F7CA01F0CF0895CF93DF93C8
:1013E0002091B8043091B904232B79F0FC01C0910D
:1013F000B404D091B50460817181CE010E94FD20BA
:10140000009719F08C1B9D0B02C08FEF9FEFDF91AF
:10141000CF9108952091B8043091B904DC0114965D
:10142000ED91FC9115972E173F07B0F04091B40451
:101430005091B5044115510579F06D917C9161157C
:10144000710551F0C9018E1B9F0B840F951F0E94DF
:10145000DF2021E0892B09F020E0822F0895FC0194
:10146000448155818091B8049091B90484179507FF
:1014700080F08091B4049091B504009751F06081A0
:1014800071816115710529F00E94EF2021E0892BFF
:1014900009F020E0822F08958F929F92AF92BF9221
:1014A0000F931F93CF93DF93CDB7DEB7A1970FB6FE
:1014B000F894DEBF0FBECDBF19A2423008F44AE057
:1014C0008E010F5D1F4F842E912CA12CB12CA501F4
:1014D00094010E94771EE62FB901CA01015011093B
:1014E000EA3014F4E05D01C0E95CD801EC93232BF1
:1014F000242B252B61F7B80182E794E025DBA19628
:101500000FB6F894DEBF0FBECDBFDF91CF911F9114
:101510000F91BF90AF909F908F900895CF92DF92E0
:10152000EF92FF92CF93DF9397FF17C06B017C017F
:101530008DE209DFEC0166277727CB016C197D0965
:101540008E099F094AE0A8DF8C0F9D1FDF91CF9184
:10155000FF90EF90DF90CF9008954AE0DF91CF9118
:10156000FF90EF90DF90CF9097CFFC01808580FDBA
:1015700004C082FB882780F9089580E00895CF9207
:10158000DF92EF92FF921F93CF93DF93EC01888558
:101590008B7F8887CE010E94B002182F88858695A0
:1015A0008170181751F018D36A837B838C839D83D5
:1015B000988582E08927888727C00ED3CA80DB8080
:1015C000EC80FD80AB01BC014C195D096E097F09FF
:1015D0008E819F81A0E0B0E0481759076A077B071A
:1015E00098F088858170181779F0F6D26A837B832A
:1015F0008C839D83988581E0892784608887ECD2DD
:101600006A877B878C879D87888582FB882780F9FE
:10161000DF91CF911F91FF90EF90DF90CF900895D1
:10162000E2E7F4E08089982F9260908B8A606ECE1A
:10163000CF93DF93282F30E0F901E65EFD4F8491D0
:10164000F901EC52FE4FD491F901E257FE4FC491DB
:10165000CC2389F0811104DEEC2FF0E0EE0FFF1FA8
:10166000EC58FE4FA591B491EC91ED2381E090E010
:1016700021F480E002C080E090E0DF91CF910895F6
:101680001F93CF93DF93282F30E0F901E65EFD4FE3
:101690008491F901EC52FE4FD491F901E257FE4FCB
:1016A000C491CC23B9F0162F8111DADDEC2FF0E0D4
:1016B000EE0FFF1FE65AFE4FA591B4919FB7F89425
:1016C000111104C08C91D095D82302C0EC91DE2B6F
:1016D000DC939FBFDF91CF911F910895CF93DF934C
:1016E00090E0FC01EC52FE4F2491FC01E257FE4FCA
:1016F0008491882361F190E0880F991FFC01E05CE0
:10170000FE4FC591D491FC01E65AFE4FA591B491CC
:10171000611109C09FB7F89488812095822388833E
:10172000EC912E230BC0623061F49FB7F89488814E
:10173000322F309583238883EC912E2B2C939FBFDF
:1017400006C08FB7F894E8812E2B28838FBFDF91D6
:10175000CF9108950F931F93CF93DF93EC01862FC2
:101760001B861A86198218821E8A1F8A188E198E65
:10177000EAE0F0E0FF83EE836C877D875F874E872A
:10178000398B288B1B8B0A8B61E0A8DF61E08E858B
:10179000A5DF61E08889A2DF61E08A899FDF1D8A79
:1017A0001C8A84E090E099878887DF91CF911F9110
:1017B0000F910895CF93DF93823028F090918104A8
:1017C000986090938104809385041092860480E44D
:1017D0008093870480E18093880480E58093890466
:1017E00061E0809176047ADF809177048F3F11F079
:1017F00061E074DF61E08091780470DFC2E7D4E0DB
:101800009E01225734408091810484FD03C084E00E
:1018100090E002C088E090E021962817390724F470
:1018200061E08E815BDFECCF8BE39DE00197F1F708
:1018300060E08091760424DF60E08091780420DF0E
:10184000809177048F3F11F060E01ADF809181046E
:1018500084FD1CC063E082E794E0EBD9CBE4D6E4DE
:10186000CE010197F1F763E082E794E0E2D9219796
:10187000F1F763E082E794E0DCD983E592E0019739
:10188000F1F762E082E794E0D4D912C080623EDDD5
:101890008BE496E40197F1F780918104806236DD54
:1018A00083E592E00197F1F78091810480622EDD5B
:1018B0008091810480622ADD84E0809382048CE040
:1018C00025DD29DD82E08093830486E0DF91CF91DE
:1018D0001DCD1F93CF93DF93182FEB0161E0FEDE48
:1018E000209711F460E004C0CF3FD10531F461E0EE
:1018F000812FDF91CF911F91C3CEE12FF0E0E65E03
:10190000FD4FE4918E2F90E0FC013197E231F1051B
:1019100008F09DC08827E257FF4F8F4F0C94B51EEB
:1019200084B5806884BDC7BD97C084B5806284BD1E
:10193000C8BD92C080918000806880938000D09361
:101940008900C093880088C0809180008062809365
:101950008000D0938B00C0938A007EC0809180006D
:10196000886080938000D0938D00C0938C0074C0F9
:101970008091B00080688093B000C093B3006CC0C9
:101980008091B00080628093B000C093B40064C0C6
:1019900080919000806880939000D0939900C093CC
:1019A00098005AC080919000806280939000D093FC
:1019B0009B00C0939A0050C08091900088608093F3
:1019C0009000D0939D00C0939C0046C08091A000E1
:1019D00080688093A0008091A0008F7B8093A000FE
:1019E000D093A900C093A80037C08091A000806266
:1019F0008093A000D093AB00C093AA002DC080912B
:101A0000A00088608093A000D093AD00C093AC008C
:101A100023C080912001806880932001D093290108
:101A2000C093280119C08091200180628093200119
:101A3000D0932B01C0932A010FC0809120018860B0
:101A400080932001D0932D01C0932C0105C0C03894
:101A5000D1050CF04CCF46CFDF91CF911F91089567
:101A60008F929F92AF92BF92CF92DF92EF92FF92AE
:101A70006B017C018CD04B015C01C114D104E104E9
:101A8000F104E9F084D0DC01CB0188199909AA0995
:101A9000BB09883E9340A105B10578F321E0C21A45
:101AA000D108E108F10888EE880E83E0981EA11C99
:101AB000B11CC114D104E104F10421F7DECFFF9081
:101AC000EF90DF90CF90BF90AF909F908F90089550
:101AD000CF92DF92EF92FF920F931F93CF93DF93FA
:101AE0006C01EB017A014617570720F48D2FEA01AC
:101AF000E62EF82E60E673E0C6010E9438040091DD
:101B0000B8041091B904C017D107B8F5E016F10672
:101B100008F48701E091B404F091B504E00FF11FDF
:101B2000F08010826091B4047091B5046C0F7D1F39
:101B30006115710561F0FB0101900020E9F7319713
:101B4000AF01461B570BC6010E9409040EC0F601E7
:101B500080819181009711F00E94691FF601118226
:101B6000108215821482138212828091B4049091A3
:101B7000B504FC01E00FF11FF082C601DF91CF91A7
:101B80001F910F91FF90EF90DF90CF9008953FB796
:101B9000F8948091450590914605A0914705B09134
:101BA000480526B5A89B05C02F3F19F00196A11D39
:101BB000B11D3FBFBA2FA92F982F8827820F911DE3
:101BC000A11DB11DBC01CD0142E0660F771F881F2A
:101BD000991F4A95D1F708952FB7F8946091410560
:101BE0007091420580914305909144052FBF08955F
:101BF0001F920F920FB60F9211242F933F938F9342
:101C00009F93AF93BF938091410590914205A0911E
:101C10004305B09144053091400523E0230F2D3753
:101C200020F40196A11DB11D05C026E8230F0296E0
:101C3000A11DB11D2093400580934105909342055D
:101C4000A0934305B09344058091450590914605C6
:101C5000A0914705B09148050196A11DB11D809343
:101C6000450590934605A0934705B0934805BF915D
:101C7000AF919F918F913F912F910F900FBE0F9039
:101C80001F901895CF93DF93CDB7DEB7E6970FB6C9
:101C9000F894DEBF0FBECDBF789484B5826084BD5A
:101CA00084B5816084BD85B5826085BD85B5816060
:101CB00085BD80916E00816080936E0010928100DE
:101CC0008091810082608093810080918100816099
:101CD000809381008091800081608093800080915A
:101CE000B10084608093B1008091B00081608093E6
:101CF000B00080919100826080939100809191006A
:101D00008160809391008091900081608093900029
:101D10008091A10082608093A1008091A1008160E8
:101D20008093A1008091A00081608093A0008091A9
:101D30002101826080932101809121018160809343
:101D400021018091200181608093200180917A009F
:101D5000846080937A0080917A00826080937A0018
:101D600080917A00816080937A0080917A00806807
:101D700080937A001092C10060E085E1AFDC60E002
:101D800088E1ACDC60E08AE1A9DC60E08CE1A6DC03
:101D900060E082E1A3DC61E08DE0A0DC61E083E053
:101DA0009DDC61E087E39ADC61E088E397DC61E039
:101DB00089E394DC61E08AE391DC61E08BE38EDC13
:101DC00061E08CE38BDC61E08DE388DC61E08EE335
:101DD00085DC61E084E082DC61E085E07FDC61E05D
:101DE00086E07CDC61E087E079DC61E082E076DC43
:101DF00061E08CE073DC61E08DE070DC61E083E049
:101E00006DDC62E088E06ADC60E089E067DC60E06D
:101E10008AE064DC60E08BE061DC6BE070E084EE23
:101E200094E099DA09E110E01093EB040093EA04DE
:101E300068E070E086ED94E08EDA1093DD040093A4
:101E4000DC0469E070E088EC94E085DA1093CF045C
:101E50000093CE046AE070E08AEB94E07CDA1093A1
:101E6000C1040093C00482E0A5DC55DA23D9809137
:101E70001302909114028230910551F124F40197DC
:101E800059F00C94C9178330910509F4F0C00497F8
:101E900009F410C40C94C91760E080E043DA6CE2E6
:101EA00072E082E794E00E94B90561E080E03ADAEE
:101EB0006EE172E082E794E00E94B905EFD884EE0B
:101EC00094E053DB882311F40C94C9170C94B317D6
:101ED00022DA60E080E026DA69E472E082E794E0EA
:101EE0000E94B90561E080E01DDA6AE372E082E7F2
:101EF00094E00E94B90585E19BDB892BA9F4B6D853
:101F00000EE110E0D7D864E670E080E090E0A8DD54
:101F100001501109B9F7BBD881E090E09093140209
:101F2000809313020C94C9178091BD03811198C04E
:101F300089EA98E0909305028093040280916900F9
:101F40008C7F826080936900E89A20912C05309103
:101F50002D05032E000C440B550B60E077E883E958
:101F600093E00E94991EA2E3CA2ED12CE12CF12C01
:101F7000CA01B901A70196010E94991E2093280564
:101F80003093290540932A0550932B052091120583
:101F900030911305032E000C440B550B60E077E8DD
:101FA00083E993E00E94991ECA01B901A701960135
:101FB0000E94991E20930E0530930F054093100543
:101FC000509311052091F8043091F904032E000C70
:101FD000440B550B60E077E883E993E00E94991E7B
:101FE000CA01B901A70196010E94991E2093F40429
:101FF0003093F5044093F6045093F70480E018DB27
:10200000892B59F057D86AE070E086E295E00E948B
:10201000960688E10DDB892B89F38AE109DB892BA0
:1020200059F448D86AE070E08CE095E00E9496068A
:102030008AE1FEDA892B89F38CE1FADA892B21F027
:1020400081E08093BD030CC035D86AE070E082EF78
:1020500094E00E9496068CE1EBDA892B69F3F0CFCD
:1020600083E090E0909314028093130208C316D883
:1020700086ED94E07ADA882339F09BC7019709F05E
:10208000ACC78AE580931202809112028A3509F06A
:10209000ECC060E08AE046D9C3DA00D80E944B0861
:1020A000882309F473C04090B1035090B20360904C
:1020B000B3037090B4032FEF421A520A620A720AF5
:1020C0004092B1035092B2036092B3037092B40392
:1020D00037E94316510461047104A4F16BE28AE507
:1020E0000E941C0760E971E080E090E0B9DC0E948A
:1020F000470886E990E0A0E0B0E08093B1039093B8
:10210000B203A093B303B093B403A090B903B0900B
:10211000BA03C090BB03D090BC03E090B503F0902D
:10212000B6030091B7031091B803609186037091D4
:102130008703809188039091890326E930E040E08D
:1021400050E022C06AE070E082EF94E00E949606C0
:102150000E944708A090B903B090BA03C090BB0397
:10216000D090BC03E090B503F090B6030091B703A4
:102170001091B80360918603709187038091880362
:1021800090918903A30192010E943D070E94480893
:10219000882309F450C24090B1035090B20360907C
:1021A000B3037090B40341E0441A51086108710808
:1021B0004092B1035092B2036092B3037092B403A1
:1021C00077FE30C06DE2809112020E941C0760E928
:1021D00071E080E090E044DC0E9447081092B10377
:1021E0001092B2031092B3031092B403A090B903FB
:1021F000B090BA03C090BB03D090BC03E090B5038D
:10220000F090B6030091B7031091B8036091860374
:1022100070918703809188039091890320E030E0DA
:10222000A90107C266EF7FEF82EF94E00E94960655
:102230000E944708A090B903B090BA03C090BB03B6
:10224000D090BC03E090B503F090B6030091B703C3
:102250001091B80360918603709187038091880381
:1022600090918903A3019201E4C1893509F0F0C07E
:1022700061E08AE057D8D4D90E944E080E944B08EA
:10228000882309F476C08091B9039091BA03A09194
:10229000BB03B091BC035C016D015FEFA51AB50AE9
:1022A000C50AD50AA092B903B092BA03C092BB0383
:1022B000D092BC038DE2A81681E0B806C104D10417
:1022C000B4F16BE289E50E941C0760E971E080E0EF
:1022D00090E0C6DB0E9447088CE291E0A0E0B0E00D
:1022E0008093B9039093BA03A093BB03B093BC034C
:1022F000E090B503F090B6030091B7031091B803D6
:102300002091B1033091B2034091B3035091B403D3
:10231000609186037091870380918803909189036F
:10232000FCE2AF2EBB24B394C12CD12C20C06AE0B8
:1023300070E08CE095E00E9496060E944708E090CD
:10234000B503F090B6030091B7031091B803209144
:10235000B1033091B2034091B3035091B403609143
:1023600086037091870380918803909189030E946E
:102370003D070E944808882309F45DC18091B90394
:102380009091BA03A091BB03B091BC035C016D01B5
:1023900021E0A21AB108C108D108A092B903B092F5
:1023A000BA03C092BB03D092BC03D7FE30C06BE22D
:1023B000809112020E941C0760E971E080E090E0C9
:1023C0004FDB0E9447081092B9031092BA03109293
:1023D000BB031092BC03E090B503F090B6030091EC
:1023E000B7031091B8032091B1033091B20340912B
:1023F000B3035091B4036091860370918703809179
:10240000880390918903A12CB12C650112C166EF5C
:102410007FEF8CE095E00E9496060E944708E090CE
:10242000B503F090B6030091B7031091B803209163
:10243000B1033091B2034091B3035091B403609162
:102440008603709187038091880390918903F1C07E
:10245000883509F0F0C061E080E00E949209E0D880
:102460000E944E080E944B08882309F474C04090D3
:10247000B5035090B6036090B7037090B8033FEF78
:10248000431A530A630A730A4092B5035092B60383
:102490006092B7037092B80349EC4416510461048A
:1024A0007104ACF16BE288E50E941C0760E971E001
:1024B00080E090E0D5DA0E94470888EC90E0A0E048
:1024C000B0E08093B5039093B603A093B703B093A5
:1024D000B803A090B903B090BA03C090BB03D090EA
:1024E000BC032091B1033091B2034091B3035091EA
:1024F000B403609186037091870380918803909163
:10250000890318ECE12EF12C00E010E022C06AE013
:1025100070E086E295E00E9496060E944708A0902F
:10252000B903B090BA03C090BB03D090BC03209114
:10253000B1033091B2034091B3035091B403609161
:1025400086037091870380918803909189038301AA
:1025500072010E943D070E944808882309F46BC05D
:102560004090B5035090B6036090B7037090B803E5
:1025700051E0451A5108610871084092B503509224
:10258000B6036092B7037092B80377FE30C06BE277
:10259000809112020E941C0760E971E080E090E0E7
:1025A0005FDA0E9447081092B5031092B6031092AA
:1025B000B7031092B803A090B903B090BA03C090CB
:1025C000BB03D090BC032091B1033091B203409182
:1025D000B3035091B4036091860370918703809197
:1025E000880390918903E12CF12C870122C066EFCA
:1025F0007FEF86E295E00E9496060E944708A09031
:10260000B903B090BA03C090BB03D090BC03209133
:10261000B1033091B2034091B3035091B403609180
:1026200086037091870380918803909189038301C9
:1026300072010E943D070E944E0884EE94E00E94C1
:10264000B50A882309F4A5C48091AE038111F7C4AB
:1026500060E070E08CE03DD968EC70E082E039D950
:1026600080EA92E090930B0280930A0280916900C5
:10267000806C80936900EB9A81E08093AE030E94A6
:102680004708A090B903B090BA03C090BB03D090A4
:10269000BC03E090B503F090B6030091B70310912E
:1026A000B8032091B1033091B2034091B30350912C
:1026B000B403EBC40E944E0886ED94E00E94B50A74
:1026C000A090B903B090BA03C090BB03D090BC03F4
:1026D000E090B503F090B6030091B7031091B803F2
:1026E0002091B1033091B2034091B3035091B403F0
:1026F0008111B9C4E092AA03F092AB030093AC033A
:102700001093AD03A092A603B092A703C092A803B2
:10271000D092A90320939C0330939D0340939E0382
:1027200050939F03E091E503F091E60382E08083FC
:10273000E091E103F091E2031082E091E303F09174
:10274000E40380E180831092ED03E091E903F091CE
:10275000EA0386E08083E091E703F091E80380815B
:1027600080618083E091E703F091E80380818860D5
:102770008083E091E703F091E803808180688083A3
:10278000E091E703F091E80380818F7D808388ECFE
:10279000C82ED12CE12CF12C80919A0390919B03AF
:1027A000019709F482C385ED93E00E94C1011816D8
:1027B000190694F785ED93E00E949F0189831A82A0
:1027C0000091B8041091B9040F5F1F4FB80184EB5A
:1027D00094E00E94E203882399F02091B4043091A0
:1027E000B5048091B8049091B904BE016F5F7F4F2A
:1027F000820F931F0E94E8201093B9040093B8043D
:1028000060EE72E0CE0101960E943804CE0101967E
:102810000E942F0A882371F063EE72E0CE010796C2
:102820000E943804CE0107960E940A0A811152C004
:1028300001E001C000E061EE72E0CE010D960E9461
:102840003804CE010D960E942F0A882379F063EE9A
:1028500072E0CE0143960E943804CE0143960E9456
:102860000A0A81112BC0BB24B39401C0B12C6BE1C7
:1028700072E0CE0149960E943804CE0149960E942A
:102880002F0A882399F063EE72E0CE014F960E94E2
:102890003804CE014F960E940A0A11E0811101C04E
:1028A00010E0CE014F960E94330401C010E0CE012B
:1028B00049960E943304BB2031F001C011E0CE01E3
:1028C00043960E943304CE010D960E9433040023E8
:1028D00031F001C011E0CE0107960E943304CE0111
:1028E00001960E943304112309F456CF65EE72E07D
:1028F000CE0101960E943804CE0101960E94EE0995
:102900009093990380939803CE0101960E9433041B
:1029100080919803909199039093C6038093C50387
:102920006BE573E0CE0101960E943804CE0101965A
:102930000E94EE099093970380939603CE0101962F
:102940000E94330480919603909197039093C8035B
:102950008093C70366E773E0CE0101960E943804B6
:10296000CE0101960E94EE09909395038093940303
:10297000CE0101960E9433048091940390919503B7
:102980009093CA038093C90368EE72E0CE0101966A
:102990000E943804CE0101960E94EE0990939303A1
:1029A00080939203CE0101960E943304809192039A
:1029B000909193039093CC038093CB036BEE72E0E2
:1029C000CE0101960E943804CE0101960E94EE09C4
:1029D0009093910380939003CE0101960E9433045B
:1029E00080919003909191039093CE038093CD03B7
:1029F0006EEE72E0CE0101960E943804CE0101967F
:102A00000E94EE0990938F0380938E03CE0101966E
:102A10000E94330480918E0390918F039093D00392
:102A20008093CF0361EF72E0CE0101960E943804DB
:102A3000CE0101960E94EE0990938D0380938C0342
:102A4000CE0101960E94330480918C0390918D03F6
:102A50009093D2038093D10363EE72E0CE0101968E
:102A60000E943804CE0101960E94EE0990938B03D8
:102A700080938A03CE0101960E94330480918A03D9
:102A800090918B039093D4038093D30364EF72E00F
:102A900085ED93E00E94B90584EB94E00E94BE09A5
:102AA0008091980390919903181619060CF050C064
:102AB0000E94D4098C0166E073E085ED93E00E94EA
:102AC000B90560919803709199036E5F7F4FA801DB
:102AD000CE0101960E94680DBE016F5F7F4F8EEAA6
:102AE00094E00E94A803CE0101960E9433048EEA6E
:102AF00094E00E94BE098EEA94E00E949D03613D2D
:102B0000A7E07A07810591056CF080ED97E0A0E0E1
:102B1000B0E08093A0039093A103A093A203B0938D
:102B2000A30316C0683C7105810591054CF06093C4
:102B3000A0037093A1038093A2039093A30308C002
:102B4000C092A003D092A103E092A203F092A3034B
:102B50008091920390919303181619060CF04EC0C1
:102B60000E94D4098C0163E173E085ED93E00E943B
:102B7000B90560919203709193036E5F7F4FA80136
:102B8000CE0101960E94680DBE016F5F7F4F8CE9F8
:102B900094E00E94A803CE0101960E9433048CE9C0
:102BA00094E00E94BE098091A0049091A104892B19
:102BB00029F100919C0410919D0463E672E0C80124
:102BC0000E94DF20892B19F482E390E013C06DE5A9
:102BD00072E0C8010E94DF20892B19F484E690E09E
:102BE00009C066E572E0C8010E94DF20892B31F43C
:102BF00088EC90E0909311028093100280919003F2
:102C000090919103181619060CF048C00E94D4093F
:102C10008C0160E273E085ED93E00E94B90560915C
:102C20009003709191036E5F7F4FA801CE010196D2
:102C30000E94680DBE016F5F7F4F86E994E00E949D
:102C4000A803CE0101960E94330486E994E00E9415
:102C5000BE0986E994E00E949D03693C71058105E7
:102C600091054CF0C092B503D092B603E092B70341
:102C7000F092B80313C097FD09C06093B503709339
:102C8000B6038093B7039093B80308C01092B503BE
:102C90001092B6031092B7031092B80380918E037E
:102CA00090918F03181619060CF04DC00E94D4099C
:102CB0008C016DE273E085ED93E00E94B9056091AF
:102CC0008E0370918F036E5F7F4FA801CE01019636
:102CD0000E94680DBE016F5F7F4F80E994E00E9403
:102CE000A803CE0101960E94330480E994E00E947B
:102CF000BE0980E994E00E949D036D32B1E07B073C
:102D0000810591056CF08CE291E0A0E0B0E0809349
:102D1000B9039093BA03A093BB03B093BC0313C051
:102D200097FD09C06093B9037093BA038093BB0306
:102D30009093BC0308C01092B9031092BA0310928A
:102D4000BB031092BC0380918C0390918D031816E5
:102D500019060CF04CC00E94D4098C016AE373E0A0
:102D600085ED93E00E94B90560918C0370918D030D
:102D70006E5F7F4FA801CE0101960E94680DBE01D3
:102D80006F5F7F4F8AE894E00E94A803CE0101960E
:102D90000E9433048AE894E00E94BE098AE894E025
:102DA0000E949D0367397105810591056CF086E9E4
:102DB00090E0A0E0B0E08093B1039093B203A093C1
:102DC000B303B093B40313C097FD09C06093B1037C
:102DD0007093B2038093B3039093B40308C010922E
:102DE000B1031092B2031092B3031092B403809116
:102DF0009603909197031816190694F467E473E00C
:102E000085ED93E00E94A4056EE573E085ED93E007
:102E10000E94A40581E090E09093A5038093A40311
:102E200080919403909195031816190694F461E625
:102E300073E085ED93E00E94A4056EE573E085EDF7
:102E400093E00E94A40582E090E09093A503809314
:102E5000A4038091960390919703181619065CF0CD
:102E600080919403909195031816190624F01092FE
:102E7000A5031092A40385ED93E00E944402809183
:102E8000B8049091B904892B49F0E091B404F09111
:102E9000B5041092B9041092B804108281E090E059
:102EA00090939B0380939A0377CC85ED93E00E94E7
:102EB0004402E091E703F091E80380818F7E8083F4
:102EC000E091E703F091E8038081877F8083E091C0
:102ED000E703F091E80380818F778083E091E70337
:102EE000F091E80380818F7D80838091EF03809350
:102EF000EE038091B5039091B603A091B703B09112
:102F0000B8034091AA035091AB036091AC03709158
:102F1000AD0384179507A607B70739F0841B950BF7
:102F2000292F221F2227221F03C020E080E090E0EB
:102F30004091B9035091BA036091BB037091BC03F7
:102F4000C090A603D090A703E090A803F090A90337
:102F50004C155D056E057F0509F4A1C34C195D098B
:102F600057FF9FC39DC085E10E94180B0097D9F4BD
:102F70000E9436080EE110E064E670E080E090E028
:102F80000E94300D0E945A0801501109A9F70E94B1
:102F9000470861E070E080E090E00E94300D0E9400
:102FA00065020C94360F0197A1F782E090E00C9433
:102FB0008E0F8091AF039091B00301969093B00370
:102FC0008093AF038230910511F489E55BC88330AB
:102FD000910509F053C888E555C880E38093120233
:102FE0001092B0031092AF0384E090E0909314022B
:102FF000809313020E944708A090B903B090BA03CF
:10300000C090BB03D090BC03E090B503F090B60332
:103010000091B7031091B8032091B1033091B2032E
:103020004091B3035091B40360918603709187037C
:1030300080918803909189030E943D0725C860E034
:1030400070E08CE00E94690C60E070E082E00E9419
:10305000690CEB9885E691E090930B0280930A024D
:103060001092AE030CCB8091AF039091B003019608
:103070009093B0038093AF038AE58093120283E0BC
:1030800090E09093140280931302609186037091F4
:10309000870380918803909189030E943D0779CF2F
:1030A000519541955109222359F1BC0197FF03C065
:1030B0007195619571094617570764F4CB01BA0100
:1030C00003D6EE24FF24E61AF70A22243324281A12
:1030D000390A24C0CA01F8D500271127061B170B8F
:1030E00022273327281B390B3EA32DA305C0CA0175
:1030F000EBD58B019EA38DA3EE24EA94FE2C22C077
:10310000BC0197FF03C07195619571094617570778
:1031100054F4CB01BA01D8D57B011C010FEF1FEF8E
:103120001EA21DA211C0CA01CFD500271127061B60
:10313000170B44275527481B590B5EA34DA3EE24BC
:10314000E394F12C212C312C8091A4039091A503C0
:1031500081309105F9F08230910509F475C0892B11
:1031600009F0CBC08091AE03882349F0EB9885E647
:1031700091E090930B0280930A021092AE0360E0FC
:1031800070E08CE00E94690C60E070E082E00E94D8
:10319000690CB3C060E070E08CE00E94690C60E0F4
:1031A00070E082E00E94690C8091AE0381110FC033
:1031B00080EA92E090930B0280930A02809169006A
:1031C000806C80936900EB9A81E08093AE03C12C00
:1031D000D12C6091A0037091A1038091A2039091E2
:1031E000A303C6D34B015C01209186033091870372
:1031F0004091880350918903B5D3882309F47DC099
:10320000B6018CE00E94690C0E945A084090860327
:10321000509087036090880370908903A301920106
:10322000C501B40149D518161CF4CC24CA94D12C7C
:10323000A3019201C501B40195D387FFCACF51E024
:10324000C51AD10830F6C3CF60E070E08CE00E9470
:10325000690C60E070E082E00E94690C8091AE032E
:1032600081110FC080EA92E090930B0280930A02D2
:1032700080916900806C80936900EB9A81E0809373
:10328000AE03C12CD12C6091A0037091A103809159
:10329000A2039091A3036CD34B015C0120918603A0
:1032A0003091870340918803509189035BD3882331
:1032B00021F1B60182E00E94690C0E945A084090F8
:1032C0008603509087036090880370908903A30160
:1032D0009201C501B401F0D418161CF4CC24CA9490
:1032E000D12CA3019201C501B4013CD387FFCBCF00
:1032F00091E0C91AD10838F6C4CF2091F804309172
:10330000F904032E000C440B550B60E077E883E9C9
:1033100093E00FD58090100290901102092C000CC0
:10332000AA08BB08CA01B901A501940102D52093DE
:10333000F4043093F5044093F6045093F70440905E
:10334000B1035090B2036090B3037090B4038091C6
:103350009C0390919D03A0919E03B0919F034816FA
:1033600059066A067B064CF580909C0390909D035D
:10337000A0909E03B0909F03481459046A047B04F4
:10338000B4F40E945A0866EF7FEF82EF94E00E9447
:103390009606B1E08B1A9108A108B10880929C03AF
:1033A00090929D03A0929E03B0929F03DDCF892847
:1033B0008A288B2879F56DE22AC080909C03909032
:1033C0009D03A0909E03B0909F0384149504A604CF
:1033D000B704B4F40E945A086AE070E082EF94E007
:1033E0000E9496062FEF821A920AA20AB20A8092CF
:1033F0009C0390929D03A0929E03B0929F03DDCF09
:1034000036E983169104A104B10421F46BE28AE544
:103410000E941C078090100290901102092C000C51
:10342000AA08BB0820912C0530912D05032E000C15
:10343000440B550B60E077E883E993E07AD4CA0146
:10344000B901A501940175D420932805309329056D
:1034500040932A0550932B052091120530911305B6
:10346000032E000C440B550B60E077E883E993E0F2
:1034700060D4CA01B901A50194015BD420930E0563
:1034800030930F0540931005509311058AE08E9DEF
:10349000A0018F9D500D11245CA74BA7809FD001E8
:1034A000819FB00D1124BEA7ADA72101032C000CF4
:1034B000660877082DA13EA1032E000C440B550B86
:1034C0002FA338A749A75AA7C701FF0CAA0BBB0B0C
:1034D0008FA798ABA9ABBAAB9801110F440B550B52
:1034E0002BAB3CAB4DAB5EABC090AA03D090AB0313
:1034F000E090AC03F090AD038091B5039091B603DA
:10350000A091B703B091B80384199509A609B7092A
:103510008C159D05AE05BF0509F44CC08090A6032F
:103520009090A703A090A803B090A9038091B9033D
:103530009091BA03A091BB03B091BC032FA138A511
:1035400049A55AA5821B930BA40BB50B88159905A9
:10355000AA05BB0579F10E945A086BA57CA586E2F5
:1035600095E00E9496068FA598A9A9A9BAA9C80EA8
:10357000D91EEA1EFB1EC092AA03D092AB03E092B2
:10358000AC03F092AD036DA57EA58CE095E00E94A2
:1035900096062BA93CA94DA95EA9820E931EA41ED6
:1035A000B51E8092A6039092A703A092A803B092A2
:1035B000A9039ACF1AE0129DB001139D700D11243A
:1035C00086E295E00E949606C40CD51CE61CF71C0A
:1035D000C092AA03D092AB03E092AC03F092AD0389
:1035E0004DA15EA1149FB001159F700D11248CE0B8
:1035F00095E00E9496068091A6039091A703A09162
:10360000A803B091A9032FA138A549A55AA5820FF7
:10361000931FA41FB51F8093A6039093A703A093A5
:10362000A803B093A903CD28CE28CF2821F46DE2BA
:1036300088E50E941C078091AA039091AB03A0919A
:10364000AC03B091AD03883C9105A105B10521F40F
:103650006BE288E50E941C078091A6039091A70366
:10366000A091A803B091A903892B8A2B8B2B21F45D
:103670006DE289E50E941C078091A6039091A70343
:10368000A091A803B091A9038C329140A105B10586
:1036900009F07FCC6BE289E50E941C077ACC40E000
:1036A00050E02223C1F0BC0197FF03C071956195E2
:1036B0007109461757070CF01ACDCB01BA0104D394
:1036C000EE24FF24E61AF70A22243324281A390AA2
:1036D00001E010E025CDBC0197FF03C07195619515
:1036E00071094617570734F4CB01BA01EDD27B01BB
:1036F0001C01EECFCA01E8D28B019EA38DA31FCD82
:103700008AE894E00E94330480E994E00E94330444
:1037100086E994E00E9433048CE994E00E9433042B
:1037200082EA94E00E94330488EA94E00E94330421
:103730008EEA94E00E94330484EB94E00C9433040A
:103740000F931F93E5EDF3E01382128288EE93E06E
:10375000A0E0B0E084839583A683B7838EEB92E0EC
:103760009183808385EC90E09587848784EC90E05A
:103770009787868780EC90E0918B808B81EC90E03E
:10378000938B828B82EC90E0958B848B86EC90E01F
:10379000978B868B118E128E138E148EE2E7F4E0D7
:1037A0001382128280ED92E09183808388E2848389
:1037B0008FEF858389E286838AE287838BE2808725
:1037C0008CE281878DE282871386148615861686A1
:1037D000178681E00E94DA0B60E673E084EB94E0E8
:1037E0000E94380460E673E08EEA94E00E94380498
:1037F00060E673E088EA94E00E94380460E673E0D3
:1038000082EA94E00E94380460E673E08CE994E078
:103810000E94380460E673E086E994E00E94380470
:1038200060E673E080E994E00E94380460E673E0AB
:103830008AE894E00E943804E4EEF4E02CED32E0F3
:103840003183208312821382148215828AE090E0F1
:103850009783868310861186E6EDF4E0318320831A
:1038600012821382148215829783868310861186B2
:10387000E8ECF4E0318320831282138214821582F3
:103880009783868310861186EAEBF4E031832083E8
:103890001282138214821582978386831086118682
:1038A0000AE310E029E330E048E350E067E370E02A
:1038B00086E295E00E94AA0B0EE310E02DE330E0D3
:1038C0004CE350E06BE370E08CE095E00E94AA0BC3
:1038D00007E010E026E030E045E050E064E070E012
:1038E00082EF94E00E94AA0B1F910F9108951F93FD
:1038F000FC0199278827BC01E89411911032E9F363
:10390000193010F01E30C8F31B3249F01D3241F45B
:10391000689405C012D0610F711D811D911D119118
:1039200010531A30B8F33EF49095809570956195D8
:103930007F4F8F4F9F4F1F910895592F482F372F3B
:10394000262F660F771F881F991F660F771F881F06
:10395000991F620F731F841F951F660F771F881FA3
:10396000991F089540D008F481E00895E89409C0B3
:1039700097FB3EF490958095709561957F4F8F4FA2
:103980009F4F9923A9F0F92F96E9BB279395F695B8
:10399000879577956795B795F111F8CFFAF4BB0F36
:1039A00011F460FF1BC06F5F7F4F8F4F9F4F16C09A
:1039B000882311F096E911C0772321F09EE8872F24
:1039C000762F05C0662371F096E8862F70E060E0E0
:1039D0002AF09A95660F771F881FDAF7880F969559
:1039E000879597F90895990F0008550FAA0BE0E8FD
:1039F000FEEF16161706E807F907C0F012161306B1
:103A0000E407F50798F0621B730B840B950B39F4F0
:103A10000A2661F0232B242B252B21F408950A2656
:103A200009F4A140A6958FEF811D811D08950BD04B
:103A300078C069D028F06ED018F0952309F05AC0EC
:103A40005FC01124A2C07ED0A0F3959FD1F3950F43
:103A500050E0551F629FF001729FBB27F00DB11D12
:103A6000639FAA27F00DB11DAA1F649F6627B00DA2
:103A7000A11D661F829F2227B00DA11D621F739F8B
:103A8000B00DA11D621F839FA00D611D221F749F99
:103A90003327A00D611D231F849F600D211D822FE0
:103AA000762F6A2F11249F5750408AF0E1F0882327
:103AB0004AF0EE0FFF1FBB1F661F771F881F915034
:103AC0005040A9F79E3F510570F014C05EC05F3FA3
:103AD000ECF3983EDCF3869577956795B795F79567
:103AE000E7959F5FC1F7FE2B880F911D96958795EF
:103AF00097F9089597F99F6780E870E060E008956E
:103B00009FEF80EC089500240A94161617061806F5
:103B10000906089500240A941216130614060506D1
:103B20000895092E0394000C11F4882352F0BB0F62
:103B300040F4BF2B11F460FF04C06F5F7F4F8F4FC5
:103B40009F4F089557FD9058440F551F59F05F3F00
:103B500071F04795880F97FB991F61F09F3F79F0AF
:103B600087950895121613061406551FF2CF469531
:103B7000F1DF08C0161617061806991FF1CF8695B3
:103B80007105610508940895E894BB276627772797
:103B9000CB0197F908955058BB27AA270ED0C1CF63
:103BA000B2DF30F0B7DF20F031F49F3F11F41EF4A4
:103BB000A7CF0EF4E095E7FB9DCFE92FC3DF80F39D
:103BC000BA17620773078407950718F071F49EF51A
:103BD000DBCF0EF4E0950B2EBA2FA02D0B01B9010F
:103BE00090010C01CA01A0011124FF27591B99F073
:103BF000593F50F4503E68F11A16F040A22F232F7F
:103C0000342F4427585FF3CF469537952795A795CE
:103C1000F0405395C9F77EF41F16BA0B620B730B75
:103C2000840BBAF09150A1F0FF0FBB1F661F771FE6
:103C3000881FC2F70EC0BA0F621F731F841F48F49B
:103C4000879577956795B795F7959E3F08F0B3CF21
:103C50009395880F08F09927EE0F9795879508950B
:103C600079DF88F09F5790F0B92F9927B751A0F0CE
:103C7000D1F0660F771F881F991F1AF0BA95C9F700
:103C800012C0B13081F080DFB1E008957DCF672FA1
:103C9000782F8827B85F39F0B93FCCF386957795B0
:103CA0006795B395D9F73EF4909580957095619599
:103CB0007F4F8F4F9F4F089596DE08F48FEF089542
:103CC00092DE880B990B089597FB072E16F400944B
:103CD00006D077FD08D051D007FC05D03EF4909572
:103CE00081959F4F0895709561957F4F0895A1E24A
:103CF0001A2EAA1BBB1BFD010DC0AA1FBB1FEE1F66
:103D0000FF1FA217B307E407F50720F0A21BB30BB0
:103D1000E40BF50B661F771F881F991F1A9469F72C
:103D200060957095809590959B01AC01BD01CF0188
:103D30000895052E97FB16F400940FD057FD05D07B
:103D4000D6DF07FC02D046F408C050954095309568
:103D500021953F4F4F4F5F4F0895909580957095F7
:103D600061957F4F8F4F9F4F0895EE0FFF1F881F64
:103D70008BBF0790F691E02D1994AA1BBB1B51E154
:103D800007C0AA1FBB1FA617B70710F0A61BB70BCB
:103D9000881F991F5A95A9F780959095BC01CD0170
:103DA00008950F931F93CF93DF938230910510F402
:103DB00082E090E0E0914B05F0914C0520E030E08E
:103DC000A0E0B0E0309719F1408151810281138168
:103DD00048175907C8F08417950769F4109731F010
:103DE00012960C93129713961C9327C000934B05C1
:103DF00010934C0522C02115310519F042175307C5
:103E000018F49A01BD01EF01DF01F801DBCF2115A4
:103E10003105F9F0281B390B2430310580F48A81F3
:103E20009B816115710521F0FB019383828304C09E
:103E300090934C0580934B05FE01329644C0FE01E1
:103E4000E20FF31F81939193225031093983288324
:103E50003AC02091490530914A05232B41F4209125
:103E600017023091180230934A052093490520919A
:103E70001502309116022115310541F42DB73EB7D8
:103E80004091190250911A02241B350BE09149050B
:103E9000F0914A05E217F307A0F42E1B3F0B2817F9
:103EA000390778F0AC014E5F5F4F2417350748F0B3
:103EB0004E0F5F1F50934A0540934905819391939C
:103EC00002C0E0E0F0E0CF01DF91CF911F910F91B0
:103ED0000895CF93DF93009709F481C0FC013297D6
:103EE00013821282A0914B05B0914C05109781F47A
:103EF00020813181820F931F2091490530914A051D
:103F00002817390751F5F0934A05E093490567C032
:103F1000ED0120E030E0CE17DF0740F44A815B81FD
:103F20009E0141155105F1F0EA01F5CFD383C2831B
:103F300040815181840F951FC817D90759F4888192
:103F40009981840F951F0296918380838A819B813A
:103F5000938382832115310529F4F0934C05E09376
:103F60004B053DC0E901FB83EA8349915991C40F98
:103F7000D51FEC17FD0761F480819181840F951F97
:103F80000296E90199838883828193819B838A8346
:103F9000E0E0F0E012968D919C911397009719F054
:103FA000FD01DC01F7CF8D919C9111979D012E5F52
:103FB0003F4F820F931F2091490530914A052817E2
:103FC000390769F4309729F410924C0510924B058B
:103FD00002C013821282B0934A05A0934905DF9173
:103FE000CF9108956F927F928F929F92AF92BF92DE
:103FF000CF92DF92EF92FF920F931F93CF93DF93B5
:10400000009781F4CB01DF91CF911F910F91FF9029
:10401000EF90DF90CF90BF90AF909F908F907F9068
:104020006F90BFCEFC01E60FF71F9C0122503109B3
:10403000E217F30708F4A5C0EC01D9010D911C911A
:10404000119706171707A8F00530110508F497C057
:10405000C80104978617970708F491C00250110908
:10406000061B170B019311936D937C93CF0131DFE6
:1040700086C05B01A01AB10A4C01800E911EA0916E
:104080004B05B0914C05612C712CE12CF12C109753
:1040900009F446C08D919C911197A815B905B1F509
:1040A0006C0142E0C40ED11CCA14DB0478F14C014F
:1040B0008A189B08640142E0C40ED11C1296BC9081
:1040C00012971396AC91B5E0CB16D10440F0B282B2
:1040D000A38391828082D9016D937C9309C00E5F86
:1040E0001F4F800F911FF90191838083EB2DFA2FD1
:1040F000E114F10431F0D7011396FC93EE9312977B
:104100003EC0F0934C05E0934B0539C06816790624
:1041100008F43C017D0112960D90BC91A02DB7CF03
:104120008091490590914A0588169906E1F4661632
:104130007706C8F48091150290911602009741F419
:104140008DB79EB74091190250911A02841B950BAE
:10415000E817F907B0F4F0934A05E0934905F9012F
:10416000718360830CC0CB011CDE7C01009749F099
:10417000A801BE011BD0CE01ACDEC70104C0CE0138
:1041800002C080E090E0DF91CF911F910F91FF90EE
:10419000EF90DF90CF90BF90AF909F908F907F90E7
:1041A0006F90089581E090E0F89441C0FB01DC013C
:1041B00002C001900D9241505040D8F70895FB0184
:1041C000DC018D91019080190110D9F3990B0895AC
:1041D000FB01DC0101900D920020E1F70895FB0145
:1041E000DC014150504030F08D910190801919F45C
:1041F0000020B9F7881B990B0895FB0151915523B5
:10420000A9F0BF01DC014D9145174111E1F759F4C7
:10421000CD010190002049F04D9140154111C9F3A5
:10422000FB014111EFCF81E090E00197089511E08B
:10423000C1E3D1E000E005C0802FFE0196DD2196AC
:10424000011DC233D10780E00807B1F7F894FFCF12
:10425000650165016501650165016501650165012E
:10426000320030010000004D058000002400486F3E
:104270006D65205265743F203C533E002020204352
:104280004E4320526F7574657200696E2070726FB4
:1042900067726573732E2E2E004D616368696E65BB
:1042A00020486F6D650052617069646F004D6564F0
:1042B000696F004C656E746F00436C6F736520749A
:1042C000686520436F76657221004572726F3A20EF
:1042D000506C6561736500583A2020202020202012
:1042E00020593A00533A20202020202020205A3AFA
:1042F0000020202020417869733A0020204F766505
:1043000072202054726176656C0000000000F80194
:10431000660190014402C1019F01B3010000000049
:10432000910666019D02640100000000B002AC022B
:104330000A24002300533D00463D00583D00593DEE
:10434000005A3D00434F4D414E444F532053455278
:1043500049414C3A200056414C4F5220444520538D
:104360003A200056414C4F5220444520463A200006
:1043700056414C4F5220444520583A200056414C5B
:104380004F5220444520593A200056414C4F52206C
:104390004445205A3A2000524F544143414F205344
:1043A000454E5449444F2043573A204D33000D0A9F
:1043B00000524F544143414F2053454E5449444FBE
:1043C000204343573A204D34006E616E00696E669B
:0643D000006F766600009C
:00000001FF
